{"contracts/Lottery.sol":{"Lottery":{"abi":[{"inputs":[{"internalType":"address","name":"vrfCoordinator","type":"address"},{"internalType":"uint256","name":"entrancefee","type":"uint256"}],"stateMutability":"nonpayable","type":"constructor"},{"inputs":[],"name":"Lottery_NotEnoughEth","type":"error"},{"inputs":[{"internalType":"address","name":"have","type":"address"},{"internalType":"address","name":"want","type":"address"}],"name":"OnlyCoordinatorCanFulfill","type":"error"},{"anonymous":false,"inputs":[{"indexed":true,"internalType":"address","name":"player","type":"address"}],"name":"Lotteryenter","type":"event"},{"inputs":[],"name":"enterlottery","outputs":[],"stateMutability":"payable","type":"function"},{"inputs":[],"name":"getEntranceFees","outputs":[{"internalType":"uint256","name":"","type":"uint256"}],"stateMutability":"view","type":"function"},{"inputs":[{"internalType":"uint256","name":"requestId","type":"uint256"},{"internalType":"uint256[]","name":"randomWords","type":"uint256[]"}],"name":"rawFulfillRandomWords","outputs":[],"stateMutability":"nonpayable","type":"function"},{"inputs":[],"name":"reqRandomWinner","outputs":[],"stateMutability":"nonpayable","type":"function"}],"devdoc":{"kind":"dev","methods":{},"version":1},"evm":{"bytecode":{"linkReferences":{},"object":"60c060405234801561001057600080fd5b506040516106f43803806106f483398181016040528101906100329190610110565b818073ffffffffffffffffffffffffffffffffffffffff1660808173ffffffffffffffffffffffffffffffffffffffff1681525050508060a081815250505050610150565b600080fd5b600073ffffffffffffffffffffffffffffffffffffffff82169050919050565b60006100a78261007c565b9050919050565b6100b78161009c565b81146100c257600080fd5b50565b6000815190506100d4816100ae565b92915050565b6000819050919050565b6100ed816100da565b81146100f857600080fd5b50565b60008151905061010a816100e4565b92915050565b6000806040838503121561012757610126610077565b5b6000610135858286016100c5565b9250506020610146858286016100fb565b9150509250929050565b60805160a0516105726101826000396000818161017d01526101a301526000818160bb015261010f01526105726000f3fe60806040526004361061003f5760003560e01c80631fe543e3146100445780634a26d4f41461006d5780636300b98114610098578063b4123c3d146100a2575b600080fd5b34801561005057600080fd5b5061006b6004803603810190610066919061044c565b6100b9565b005b34801561007957600080fd5b50610082610179565b60405161008f91906104b7565b60405180910390f35b6100a06101a1565b005b3480156100ae57600080fd5b506100b76102a3565b005b7f000000000000000000000000000000000000000000000000000000000000000073ffffffffffffffffffffffffffffffffffffffff163373ffffffffffffffffffffffffffffffffffffffff161461016b57337f00000000000000000000000000000000000000000000000000000000000000006040517f1cf993f4000000000000000000000000000000000000000000000000000000008152600401610162929190610513565b60405180910390fd5b61017582826102a5565b5050565b60007f0000000000000000000000000000000000000000000000000000000000000000905090565b7f00000000000000000000000000000000000000000000000000000000000000003410156101fb576040517f0178311000000000000000000000000000000000000000000000000000000000815260040160405180910390fd5b6000339080600181540180825580915050600190039060005260206000200160009091909190916101000a81548173ffffffffffffffffffffffffffffffffffffffff021916908373ffffffffffffffffffffffffffffffffffffffff1602179055503373ffffffffffffffffffffffffffffffffffffffff167f0421c85960088fa4cb11e499da0fb7e5cf77c8c63f787e30e8b3fe5864378b8c60405160405180910390a2565b565b5050565b6000604051905090565b600080fd5b600080fd5b6000819050919050565b6102d0816102bd565b81146102db57600080fd5b50565b6000813590506102ed816102c7565b92915050565b600080fd5b6000601f19601f8301169050919050565b7f4e487b7100000000000000000000000000000000000000000000000000000000600052604160045260246000fd5b610341826102f8565b810181811067ffffffffffffffff821117156103605761035f610309565b5b80604052505050565b60006103736102a9565b905061037f8282610338565b919050565b600067ffffffffffffffff82111561039f5761039e610309565b5b602082029050602081019050919050565b600080fd5b60006103c86103c384610384565b610369565b905080838252602082019050602084028301858111156103eb576103ea6103b0565b5b835b81811015610414578061040088826102de565b8452602084019350506020810190506103ed565b5050509392505050565b600082601f830112610433576104326102f3565b5b81356104438482602086016103b5565b91505092915050565b60008060408385031215610463576104626102b3565b5b6000610471858286016102de565b925050602083013567ffffffffffffffff811115610492576104916102b8565b5b61049e8582860161041e565b9150509250929050565b6104b1816102bd565b82525050565b60006020820190506104cc60008301846104a8565b92915050565b600073ffffffffffffffffffffffffffffffffffffffff82169050919050565b60006104fd826104d2565b9050919050565b61050d816104f2565b82525050565b60006040820190506105286000830185610504565b6105356020830184610504565b939250505056fea26469706673582212206599268d337aedc256bd600bd2c16c1a7c1a495d167f62444eb0095995c706d264736f6c63430008110033","opcodes":"PUSH1 0xC0 PUSH1 0x40 MSTORE CALLVALUE DUP1 ISZERO PUSH2 0x10 JUMPI PUSH1 0x0 DUP1 REVERT JUMPDEST POP PUSH1 0x40 MLOAD PUSH2 0x6F4 CODESIZE SUB DUP1 PUSH2 0x6F4 DUP4 CODECOPY DUP2 DUP2 ADD PUSH1 0x40 MSTORE DUP2 ADD SWAP1 PUSH2 0x32 SWAP2 SWAP1 PUSH2 0x110 JUMP JUMPDEST DUP2 DUP1 PUSH20 0xFFFFFFFFFFFFFFFFFFFFFFFFFFFFFFFFFFFFFFFF AND PUSH1 0x80 DUP2 PUSH20 0xFFFFFFFFFFFFFFFFFFFFFFFFFFFFFFFFFFFFFFFF AND DUP2 MSTORE POP POP POP DUP1 PUSH1 0xA0 DUP2 DUP2 MSTORE POP POP POP POP PUSH2 0x150 JUMP JUMPDEST PUSH1 0x0 DUP1 REVERT JUMPDEST PUSH1 0x0 PUSH20 0xFFFFFFFFFFFFFFFFFFFFFFFFFFFFFFFFFFFFFFFF DUP3 AND SWAP1 POP SWAP2 SWAP1 POP JUMP JUMPDEST PUSH1 0x0 PUSH2 0xA7 DUP3 PUSH2 0x7C JUMP JUMPDEST SWAP1 POP SWAP2 SWAP1 POP JUMP JUMPDEST PUSH2 0xB7 DUP2 PUSH2 0x9C JUMP JUMPDEST DUP2 EQ PUSH2 0xC2 JUMPI PUSH1 0x0 DUP1 REVERT JUMPDEST POP JUMP JUMPDEST PUSH1 0x0 DUP2 MLOAD SWAP1 POP PUSH2 0xD4 DUP2 PUSH2 0xAE JUMP JUMPDEST SWAP3 SWAP2 POP POP JUMP JUMPDEST PUSH1 0x0 DUP2 SWAP1 POP SWAP2 SWAP1 POP JUMP JUMPDEST PUSH2 0xED DUP2 PUSH2 0xDA JUMP JUMPDEST DUP2 EQ PUSH2 0xF8 JUMPI PUSH1 0x0 DUP1 REVERT JUMPDEST POP JUMP JUMPDEST PUSH1 0x0 DUP2 MLOAD SWAP1 POP PUSH2 0x10A DUP2 PUSH2 0xE4 JUMP JUMPDEST SWAP3 SWAP2 POP POP JUMP JUMPDEST PUSH1 0x0 DUP1 PUSH1 0x40 DUP4 DUP6 SUB SLT ISZERO PUSH2 0x127 JUMPI PUSH2 0x126 PUSH2 0x77 JUMP JUMPDEST JUMPDEST PUSH1 0x0 PUSH2 0x135 DUP6 DUP3 DUP7 ADD PUSH2 0xC5 JUMP JUMPDEST SWAP3 POP POP PUSH1 0x20 PUSH2 0x146 DUP6 DUP3 DUP7 ADD PUSH2 0xFB JUMP JUMPDEST SWAP2 POP POP SWAP3 POP SWAP3 SWAP1 POP JUMP JUMPDEST PUSH1 0x80 MLOAD PUSH1 0xA0 MLOAD PUSH2 0x572 PUSH2 0x182 PUSH1 0x0 CODECOPY PUSH1 0x0 DUP2 DUP2 PUSH2 0x17D ADD MSTORE PUSH2 0x1A3 ADD MSTORE PUSH1 0x0 DUP2 DUP2 PUSH1 0xBB ADD MSTORE PUSH2 0x10F ADD MSTORE PUSH2 0x572 PUSH1 0x0 RETURN INVALID PUSH1 0x80 PUSH1 0x40 MSTORE PUSH1 0x4 CALLDATASIZE LT PUSH2 0x3F JUMPI PUSH1 0x0 CALLDATALOAD PUSH1 0xE0 SHR DUP1 PUSH4 0x1FE543E3 EQ PUSH2 0x44 JUMPI DUP1 PUSH4 0x4A26D4F4 EQ PUSH2 0x6D JUMPI DUP1 PUSH4 0x6300B981 EQ PUSH2 0x98 JUMPI DUP1 PUSH4 0xB4123C3D EQ PUSH2 0xA2 JUMPI JUMPDEST PUSH1 0x0 DUP1 REVERT JUMPDEST CALLVALUE DUP1 ISZERO PUSH2 0x50 JUMPI PUSH1 0x0 DUP1 REVERT JUMPDEST POP PUSH2 0x6B PUSH1 0x4 DUP1 CALLDATASIZE SUB DUP2 ADD SWAP1 PUSH2 0x66 SWAP2 SWAP1 PUSH2 0x44C JUMP JUMPDEST PUSH2 0xB9 JUMP JUMPDEST STOP JUMPDEST CALLVALUE DUP1 ISZERO PUSH2 0x79 JUMPI PUSH1 0x0 DUP1 REVERT JUMPDEST POP PUSH2 0x82 PUSH2 0x179 JUMP JUMPDEST PUSH1 0x40 MLOAD PUSH2 0x8F SWAP2 SWAP1 PUSH2 0x4B7 JUMP JUMPDEST PUSH1 0x40 MLOAD DUP1 SWAP2 SUB SWAP1 RETURN JUMPDEST PUSH2 0xA0 PUSH2 0x1A1 JUMP JUMPDEST STOP JUMPDEST CALLVALUE DUP1 ISZERO PUSH2 0xAE JUMPI PUSH1 0x0 DUP1 REVERT JUMPDEST POP PUSH2 0xB7 PUSH2 0x2A3 JUMP JUMPDEST STOP JUMPDEST PUSH32 0x0 PUSH20 0xFFFFFFFFFFFFFFFFFFFFFFFFFFFFFFFFFFFFFFFF AND CALLER PUSH20 0xFFFFFFFFFFFFFFFFFFFFFFFFFFFFFFFFFFFFFFFF AND EQ PUSH2 0x16B JUMPI CALLER PUSH32 0x0 PUSH1 0x40 MLOAD PUSH32 0x1CF993F400000000000000000000000000000000000000000000000000000000 DUP2 MSTORE PUSH1 0x4 ADD PUSH2 0x162 SWAP3 SWAP2 SWAP1 PUSH2 0x513 JUMP JUMPDEST PUSH1 0x40 MLOAD DUP1 SWAP2 SUB SWAP1 REVERT JUMPDEST PUSH2 0x175 DUP3 DUP3 PUSH2 0x2A5 JUMP JUMPDEST POP POP JUMP JUMPDEST PUSH1 0x0 PUSH32 0x0 SWAP1 POP SWAP1 JUMP JUMPDEST PUSH32 0x0 CALLVALUE LT ISZERO PUSH2 0x1FB JUMPI PUSH1 0x40 MLOAD PUSH32 0x178311000000000000000000000000000000000000000000000000000000000 DUP2 MSTORE PUSH1 0x4 ADD PUSH1 0x40 MLOAD DUP1 SWAP2 SUB SWAP1 REVERT JUMPDEST PUSH1 0x0 CALLER SWAP1 DUP1 PUSH1 0x1 DUP2 SLOAD ADD DUP1 DUP3 SSTORE DUP1 SWAP2 POP POP PUSH1 0x1 SWAP1 SUB SWAP1 PUSH1 0x0 MSTORE PUSH1 0x20 PUSH1 0x0 KECCAK256 ADD PUSH1 0x0 SWAP1 SWAP2 SWAP1 SWAP2 SWAP1 SWAP2 PUSH2 0x100 EXP DUP2 SLOAD DUP2 PUSH20 0xFFFFFFFFFFFFFFFFFFFFFFFFFFFFFFFFFFFFFFFF MUL NOT AND SWAP1 DUP4 PUSH20 0xFFFFFFFFFFFFFFFFFFFFFFFFFFFFFFFFFFFFFFFF AND MUL OR SWAP1 SSTORE POP CALLER PUSH20 0xFFFFFFFFFFFFFFFFFFFFFFFFFFFFFFFFFFFFFFFF AND PUSH32 0x421C85960088FA4CB11E499DA0FB7E5CF77C8C63F787E30E8B3FE5864378B8C PUSH1 0x40 MLOAD PUSH1 0x40 MLOAD DUP1 SWAP2 SUB SWAP1 LOG2 JUMP JUMPDEST JUMP JUMPDEST POP POP JUMP JUMPDEST PUSH1 0x0 PUSH1 0x40 MLOAD SWAP1 POP SWAP1 JUMP JUMPDEST PUSH1 0x0 DUP1 REVERT JUMPDEST PUSH1 0x0 DUP1 REVERT JUMPDEST PUSH1 0x0 DUP2 SWAP1 POP SWAP2 SWAP1 POP JUMP JUMPDEST PUSH2 0x2D0 DUP2 PUSH2 0x2BD JUMP JUMPDEST DUP2 EQ PUSH2 0x2DB JUMPI PUSH1 0x0 DUP1 REVERT JUMPDEST POP JUMP JUMPDEST PUSH1 0x0 DUP2 CALLDATALOAD SWAP1 POP PUSH2 0x2ED DUP2 PUSH2 0x2C7 JUMP JUMPDEST SWAP3 SWAP2 POP POP JUMP JUMPDEST PUSH1 0x0 DUP1 REVERT JUMPDEST PUSH1 0x0 PUSH1 0x1F NOT PUSH1 0x1F DUP4 ADD AND SWAP1 POP SWAP2 SWAP1 POP JUMP JUMPDEST PUSH32 0x4E487B7100000000000000000000000000000000000000000000000000000000 PUSH1 0x0 MSTORE PUSH1 0x41 PUSH1 0x4 MSTORE PUSH1 0x24 PUSH1 0x0 REVERT JUMPDEST PUSH2 0x341 DUP3 PUSH2 0x2F8 JUMP JUMPDEST DUP2 ADD DUP2 DUP2 LT PUSH8 0xFFFFFFFFFFFFFFFF DUP3 GT OR ISZERO PUSH2 0x360 JUMPI PUSH2 0x35F PUSH2 0x309 JUMP JUMPDEST JUMPDEST DUP1 PUSH1 0x40 MSTORE POP POP POP JUMP JUMPDEST PUSH1 0x0 PUSH2 0x373 PUSH2 0x2A9 JUMP JUMPDEST SWAP1 POP PUSH2 0x37F DUP3 DUP3 PUSH2 0x338 JUMP JUMPDEST SWAP2 SWAP1 POP JUMP JUMPDEST PUSH1 0x0 PUSH8 0xFFFFFFFFFFFFFFFF DUP3 GT ISZERO PUSH2 0x39F JUMPI PUSH2 0x39E PUSH2 0x309 JUMP JUMPDEST JUMPDEST PUSH1 0x20 DUP3 MUL SWAP1 POP PUSH1 0x20 DUP2 ADD SWAP1 POP SWAP2 SWAP1 POP JUMP JUMPDEST PUSH1 0x0 DUP1 REVERT JUMPDEST PUSH1 0x0 PUSH2 0x3C8 PUSH2 0x3C3 DUP5 PUSH2 0x384 JUMP JUMPDEST PUSH2 0x369 JUMP JUMPDEST SWAP1 POP DUP1 DUP4 DUP3 MSTORE PUSH1 0x20 DUP3 ADD SWAP1 POP PUSH1 0x20 DUP5 MUL DUP4 ADD DUP6 DUP2 GT ISZERO PUSH2 0x3EB JUMPI PUSH2 0x3EA PUSH2 0x3B0 JUMP JUMPDEST JUMPDEST DUP4 JUMPDEST DUP2 DUP2 LT ISZERO PUSH2 0x414 JUMPI DUP1 PUSH2 0x400 DUP9 DUP3 PUSH2 0x2DE JUMP JUMPDEST DUP5 MSTORE PUSH1 0x20 DUP5 ADD SWAP4 POP POP PUSH1 0x20 DUP2 ADD SWAP1 POP PUSH2 0x3ED JUMP JUMPDEST POP POP POP SWAP4 SWAP3 POP POP POP JUMP JUMPDEST PUSH1 0x0 DUP3 PUSH1 0x1F DUP4 ADD SLT PUSH2 0x433 JUMPI PUSH2 0x432 PUSH2 0x2F3 JUMP JUMPDEST JUMPDEST DUP2 CALLDATALOAD PUSH2 0x443 DUP5 DUP3 PUSH1 0x20 DUP7 ADD PUSH2 0x3B5 JUMP JUMPDEST SWAP2 POP POP SWAP3 SWAP2 POP POP JUMP JUMPDEST PUSH1 0x0 DUP1 PUSH1 0x40 DUP4 DUP6 SUB SLT ISZERO PUSH2 0x463 JUMPI PUSH2 0x462 PUSH2 0x2B3 JUMP JUMPDEST JUMPDEST PUSH1 0x0 PUSH2 0x471 DUP6 DUP3 DUP7 ADD PUSH2 0x2DE JUMP JUMPDEST SWAP3 POP POP PUSH1 0x20 DUP4 ADD CALLDATALOAD PUSH8 0xFFFFFFFFFFFFFFFF DUP2 GT ISZERO PUSH2 0x492 JUMPI PUSH2 0x491 PUSH2 0x2B8 JUMP JUMPDEST JUMPDEST PUSH2 0x49E DUP6 DUP3 DUP7 ADD PUSH2 0x41E JUMP JUMPDEST SWAP2 POP POP SWAP3 POP SWAP3 SWAP1 POP JUMP JUMPDEST PUSH2 0x4B1 DUP2 PUSH2 0x2BD JUMP JUMPDEST DUP3 MSTORE POP POP JUMP JUMPDEST PUSH1 0x0 PUSH1 0x20 DUP3 ADD SWAP1 POP PUSH2 0x4CC PUSH1 0x0 DUP4 ADD DUP5 PUSH2 0x4A8 JUMP JUMPDEST SWAP3 SWAP2 POP POP JUMP JUMPDEST PUSH1 0x0 PUSH20 0xFFFFFFFFFFFFFFFFFFFFFFFFFFFFFFFFFFFFFFFF DUP3 AND SWAP1 POP SWAP2 SWAP1 POP JUMP JUMPDEST PUSH1 0x0 PUSH2 0x4FD DUP3 PUSH2 0x4D2 JUMP JUMPDEST SWAP1 POP SWAP2 SWAP1 POP JUMP JUMPDEST PUSH2 0x50D DUP2 PUSH2 0x4F2 JUMP JUMPDEST DUP3 MSTORE POP POP JUMP JUMPDEST PUSH1 0x0 PUSH1 0x40 DUP3 ADD SWAP1 POP PUSH2 0x528 PUSH1 0x0 DUP4 ADD DUP6 PUSH2 0x504 JUMP JUMPDEST PUSH2 0x535 PUSH1 0x20 DUP4 ADD DUP5 PUSH2 0x504 JUMP JUMPDEST SWAP4 SWAP3 POP POP POP JUMP INVALID LOG2 PUSH5 0x6970667358 0x22 SLT KECCAK256 PUSH6 0x99268D337AED 0xC2 JUMP 0xBD PUSH1 0xB 0xD2 0xC1 PUSH13 0x1A7C1A495D167F62444EB00959 SWAP6 0xC7 MOD 0xD2 PUSH5 0x736F6C6343 STOP ADDMOD GT STOP CALLER "},"gasEstimates":{"creation":{"codeDepositCost":"278800","executionCost":"infinite","totalCost":"infinite"},"external":{"enterlottery()":"infinite","getEntranceFees()":"infinite","rawFulfillRandomWords(uint256,uint256[])":"infinite","reqRandomWinner()":"188"},"internal":{"fulfillRandomWords(uint256,uint256[] memory)":"13"}},"methodIdentifiers":{"enterlottery()":"6300b981","getEntranceFees()":"4a26d4f4","rawFulfillRandomWords(uint256,uint256[])":"1fe543e3","reqRandomWinner()":"b4123c3d"}},"storageLayout":{"storage":[{"astId":73,"contract":"contracts/Lottery.sol:Lottery","label":"i_players","offset":0,"slot":"0","type":"t_array(t_address_payable)dyn_storage"}],"types":{"t_address_payable":{"encoding":"inplace","label":"address payable","numberOfBytes":"20"},"t_array(t_address_payable)dyn_storage":{"base":"t_address_payable","encoding":"dynamic_array","label":"address payable[]","numberOfBytes":"32"}}},"userdoc":{"kind":"user","methods":{},"version":1}}}}