{"contracts/Lottery.sol":{"Lottery":{"abi":[{"inputs":[{"internalType":"address","name":"vrfCoordinator","type":"address"},{"internalType":"uint256","name":"entrancefee","type":"uint256"},{"internalType":"bytes32","name":"keyHash","type":"bytes32"},{"internalType":"uint64","name":"subscriptionID","type":"uint64"},{"internalType":"uint32","name":"callbackGasLimit","type":"uint32"},{"internalType":"uint256","name":"interval","type":"uint256"}],"stateMutability":"nonpayable","type":"constructor"},{"inputs":[],"name":"Lottery_NotEnoughEth","type":"error"},{"inputs":[],"name":"Lottery_TransactionFailed","type":"error"},{"inputs":[{"internalType":"uint256","name":"balance","type":"uint256"},{"internalType":"uint256","name":"players","type":"uint256"},{"internalType":"uint256","name":"state","type":"uint256"}],"name":"Lottery_UpKeepNotNeeded","type":"error"},{"inputs":[],"name":"Lottery__NotOpen","type":"error"},{"inputs":[{"internalType":"address","name":"have","type":"address"},{"internalType":"address","name":"want","type":"address"}],"name":"OnlyCoordinatorCanFulfill","type":"error"},{"anonymous":false,"inputs":[{"indexed":true,"internalType":"address","name":"player","type":"address"}],"name":"Lotteryenter","type":"event"},{"anonymous":false,"inputs":[{"indexed":true,"internalType":"address","name":"winner","type":"address"}],"name":"WinnerPicked","type":"event"},{"anonymous":false,"inputs":[{"indexed":true,"internalType":"uint256","name":"requestId","type":"uint256"}],"name":"requestLotteryWinenr","type":"event"},{"inputs":[{"internalType":"bytes","name":"","type":"bytes"}],"name":"checkUpkeep","outputs":[{"internalType":"bool","name":"upKeepNeeded","type":"bool"},{"internalType":"bytes","name":"","type":"bytes"}],"stateMutability":"nonpayable","type":"function"},{"inputs":[],"name":"enterlottery","outputs":[],"stateMutability":"payable","type":"function"},{"inputs":[],"name":"getEntranceFees","outputs":[{"internalType":"uint256","name":"","type":"uint256"}],"stateMutability":"view","type":"function"},{"inputs":[],"name":"getLotteryState","outputs":[{"internalType":"enum Lottery.LotteryState","name":"","type":"uint8"}],"stateMutability":"view","type":"function"},{"inputs":[],"name":"getRecentWinner","outputs":[{"internalType":"address","name":"","type":"address"}],"stateMutability":"view","type":"function"},{"inputs":[{"internalType":"bytes","name":"","type":"bytes"}],"name":"performUpkeep","outputs":[],"stateMutability":"nonpayable","type":"function"},{"inputs":[{"internalType":"uint256","name":"requestId","type":"uint256"},{"internalType":"uint256[]","name":"randomWords","type":"uint256[]"}],"name":"rawFulfillRandomWords","outputs":[],"stateMutability":"nonpayable","type":"function"}],"devdoc":{"kind":"dev","methods":{},"version":1},"evm":{"bytecode":{"linkReferences":{},"object":"6101606040523480156200001257600080fd5b50604051620016b1380380620016b1833981810160405281019062000038919062000294565b858073ffffffffffffffffffffffffffffffffffffffff1660808173ffffffffffffffffffffffffffffffffffffffff1681525050508460a081815250508573ffffffffffffffffffffffffffffffffffffffff1660c08173ffffffffffffffffffffffffffffffffffffffff16815250508360e081815250508267ffffffffffffffff166101008167ffffffffffffffff16815250508163ffffffff166101208163ffffffff16815250506000600260146101000a81548160ff021916908360018111156200010d576200010c62000330565b5b0217905550806101408181525050426001819055505050505050506200035f565b600080fd5b600073ffffffffffffffffffffffffffffffffffffffff82169050919050565b6000620001608262000133565b9050919050565b620001728162000153565b81146200017e57600080fd5b50565b600081519050620001928162000167565b92915050565b6000819050919050565b620001ad8162000198565b8114620001b957600080fd5b50565b600081519050620001cd81620001a2565b92915050565b6000819050919050565b620001e881620001d3565b8114620001f457600080fd5b50565b6000815190506200020881620001dd565b92915050565b600067ffffffffffffffff82169050919050565b6200022d816200020e565b81146200023957600080fd5b50565b6000815190506200024d8162000222565b92915050565b600063ffffffff82169050919050565b6200026e8162000253565b81146200027a57600080fd5b50565b6000815190506200028e8162000263565b92915050565b60008060008060008060c08789031215620002b457620002b36200012e565b5b6000620002c489828a0162000181565b9650506020620002d789828a01620001bc565b9550506040620002ea89828a01620001f7565b9450506060620002fd89828a016200023c565b93505060806200031089828a016200027d565b92505060a06200032389828a01620001bc565b9150509295509295509295565b7f4e487b7100000000000000000000000000000000000000000000000000000000600052602160045260246000fd5b60805160a05160c05160e0516101005161012051610140516112e9620003c8600039600061066e0152600061038801526000610365015260006103440152600061030801526000818161046f015261049501526000818161019201526101e601526112e96000f3fe6080604052600436106100705760003560e01c80634a26d4f41161004e5780634a26d4f4146100f25780636300b9811461011d5780636b68c03c146101275780636e04ff0d1461015257610070565b80631fe543e3146100755780634585e33b1461009e578063473f1ddc146100c7575b600080fd5b34801561008157600080fd5b5061009c60048036038101906100979190610b6a565b610190565b005b3480156100aa57600080fd5b506100c560048036038101906100c09190610c21565b610250565b005b3480156100d357600080fd5b506100dc610441565b6040516100e99190610caf565b60405180910390f35b3480156100fe57600080fd5b5061010761046b565b6040516101149190610cd9565b60405180910390f35b610125610493565b005b34801561013357600080fd5b5061013c610602565b6040516101499190610d6b565b60405180910390f35b34801561015e57600080fd5b5061017960048036038101906101749190610e3b565b610619565b604051610187929190610f1e565b60405180910390f35b7f000000000000000000000000000000000000000000000000000000000000000073ffffffffffffffffffffffffffffffffffffffff163373ffffffffffffffffffffffffffffffffffffffff161461024257337f00000000000000000000000000000000000000000000000000000000000000006040517f1cf993f4000000000000000000000000000000000000000000000000000000008152600401610239929190610f4e565b60405180910390fd5b61024c82826106ec565b5050565b600061026a60405180602001604052806000815250610619565b509050806102d95747600080549050600260149054906101000a900460ff16600181111561029b5761029a610cf4565b5b6040517f0e8492f80000000000000000000000000000000000000000000000000000000081526004016102d093929190610f77565b60405180910390fd5b6001600260146101000a81548160ff021916908360018111156102ff576102fe610cf4565b5b021790555060007f000000000000000000000000000000000000000000000000000000000000000073ffffffffffffffffffffffffffffffffffffffff16635d3b1d307f00000000000000000000000000000000000000000000000000000000000000007f000000000000000000000000000000000000000000000000000000000000000060037f000000000000000000000000000000000000000000000000000000000000000060016040518663ffffffff1660e01b81526004016103c9959493929190611090565b6020604051808303816000875af11580156103e8573d6000803e3d6000fd5b505050506040513d601f19601f8201168201806040525081019061040c91906110f8565b9050807faebc9aa08c76851ec7588f53facdf601c4c9f2806a541fa3ef67f2e947fe855760405160405180910390a250505050565b6000600260009054906101000a900473ffffffffffffffffffffffffffffffffffffffff16905090565b60007f0000000000000000000000000000000000000000000000000000000000000000905090565b7f00000000000000000000000000000000000000000000000000000000000000003410156104ed576040517f0178311000000000000000000000000000000000000000000000000000000000815260040160405180910390fd5b6000600181111561050157610500610cf4565b5b600260149054906101000a900460ff16600181111561052357610522610cf4565b5b1461055a576040517fe76be6fc00000000000000000000000000000000000000000000000000000000815260040160405180910390fd5b6000339080600181540180825580915050600190039060005260206000200160009091909190916101000a81548173ffffffffffffffffffffffffffffffffffffffff021916908373ffffffffffffffffffffffffffffffffffffffff1602179055503373ffffffffffffffffffffffffffffffffffffffff167f0421c85960088fa4cb11e499da0fb7e5cf77c8c63f787e30e8b3fe5864378b8c60405160405180910390a2565b6000600260149054906101000a900460ff16905090565b60006060600080600181111561063257610631610cf4565b5b600260149054906101000a900460ff16600181111561065457610653610cf4565b5b1490506000806000805490501190506000804711905060007f00000000000000000000000000000000000000000000000000000000000000006001544261069b9190611154565b101590508380156106a95750825b80156106b25750815b80156106bb5750805b95508560006040516020016106d091906111c3565b6040516020818303038152906040529550955050505050915091565b6000808054905082600081518110610707576107066111de565b5b6020026020010151610719919061123c565b90506000808260ff1681548110610733576107326111de565b5b9060005260206000200160009054906101000a900473ffffffffffffffffffffffffffffffffffffffff16905080600260006101000a81548173ffffffffffffffffffffffffffffffffffffffff021916908373ffffffffffffffffffffffffffffffffffffffff1602179055506000600260146101000a81548160ff021916908360018111156107c7576107c6610cf4565b5b0217905550600067ffffffffffffffff8111156107e7576107e6610a27565b5b6040519080825280602002602001820160405280156108155781602001602082028036833780820191505090505b506000908051906020019061082b929190610920565b504260018190555060008173ffffffffffffffffffffffffffffffffffffffff16476040516108599061129e565b60006040518083038185875af1925050503d8060008114610896576040519150601f19603f3d011682016040523d82523d6000602084013e61089b565b606091505b50509050806108d6576040517ff18cb4eb00000000000000000000000000000000000000000000000000000000815260040160405180910390fd5b8173ffffffffffffffffffffffffffffffffffffffff167f5b690ec4a06fe979403046eaeea5b3ce38524683c3001f662c8b5a829632f7df60405160405180910390a25050505050565b828054828255906000526020600020908101928215610999579160200282015b828111156109985782518260006101000a81548173ffffffffffffffffffffffffffffffffffffffff021916908373ffffffffffffffffffffffffffffffffffffffff16021790555091602001919060010190610940565b5b5090506109a691906109aa565b5090565b5b808211156109c35760008160009055506001016109ab565b5090565b6000604051905090565b600080fd5b600080fd5b6000819050919050565b6109ee816109db565b81146109f957600080fd5b50565b600081359050610a0b816109e5565b92915050565b600080fd5b6000601f19601f8301169050919050565b7f4e487b7100000000000000000000000000000000000000000000000000000000600052604160045260246000fd5b610a5f82610a16565b810181811067ffffffffffffffff82111715610a7e57610a7d610a27565b5b80604052505050565b6000610a916109c7565b9050610a9d8282610a56565b919050565b600067ffffffffffffffff821115610abd57610abc610a27565b5b602082029050602081019050919050565b600080fd5b6000610ae6610ae184610aa2565b610a87565b90508083825260208201905060208402830185811115610b0957610b08610ace565b5b835b81811015610b325780610b1e88826109fc565b845260208401935050602081019050610b0b565b5050509392505050565b600082601f830112610b5157610b50610a11565b5b8135610b61848260208601610ad3565b91505092915050565b60008060408385031215610b8157610b806109d1565b5b6000610b8f858286016109fc565b925050602083013567ffffffffffffffff811115610bb057610baf6109d6565b5b610bbc85828601610b3c565b9150509250929050565b600080fd5b60008083601f840112610be157610be0610a11565b5b8235905067ffffffffffffffff811115610bfe57610bfd610bc6565b5b602083019150836001820283011115610c1a57610c19610ace565b5b9250929050565b60008060208385031215610c3857610c376109d1565b5b600083013567ffffffffffffffff811115610c5657610c556109d6565b5b610c6285828601610bcb565b92509250509250929050565b600073ffffffffffffffffffffffffffffffffffffffff82169050919050565b6000610c9982610c6e565b9050919050565b610ca981610c8e565b82525050565b6000602082019050610cc46000830184610ca0565b92915050565b610cd3816109db565b82525050565b6000602082019050610cee6000830184610cca565b92915050565b7f4e487b7100000000000000000000000000000000000000000000000000000000600052602160045260246000fd5b60028110610d3457610d33610cf4565b5b50565b6000819050610d4582610d23565b919050565b6000610d5582610d37565b9050919050565b610d6581610d4a565b82525050565b6000602082019050610d806000830184610d5c565b92915050565b600080fd5b600067ffffffffffffffff821115610da657610da5610a27565b5b610daf82610a16565b9050602081019050919050565b82818337600083830152505050565b6000610dde610dd984610d8b565b610a87565b905082815260208101848484011115610dfa57610df9610d86565b5b610e05848285610dbc565b509392505050565b600082601f830112610e2257610e21610a11565b5b8135610e32848260208601610dcb565b91505092915050565b600060208284031215610e5157610e506109d1565b5b600082013567ffffffffffffffff811115610e6f57610e6e6109d6565b5b610e7b84828501610e0d565b91505092915050565b60008115159050919050565b610e9981610e84565b82525050565b600081519050919050565b600082825260208201905092915050565b60005b83811015610ed9578082015181840152602081019050610ebe565b60008484015250505050565b6000610ef082610e9f565b610efa8185610eaa565b9350610f0a818560208601610ebb565b610f1381610a16565b840191505092915050565b6000604082019050610f336000830185610e90565b8181036020830152610f458184610ee5565b90509392505050565b6000604082019050610f636000830185610ca0565b610f706020830184610ca0565b9392505050565b6000606082019050610f8c6000830186610cca565b610f996020830185610cca565b610fa66040830184610cca565b949350505050565b6000819050919050565b610fc181610fae565b82525050565b600067ffffffffffffffff82169050919050565b610fe481610fc7565b82525050565b600060ff82169050919050565b600061ffff82169050919050565b6000819050919050565b600061102a61102561102084610fea565b611005565b610ff7565b9050919050565b61103a8161100f565b82525050565b600063ffffffff82169050919050565b61105981611040565b82525050565b600061107a61107561107084610fea565b611005565b611040565b9050919050565b61108a8161105f565b82525050565b600060a0820190506110a56000830188610fb8565b6110b26020830187610fdb565b6110bf6040830186611031565b6110cc6060830185611050565b6110d96080830184611081565b9695505050505050565b6000815190506110f2816109e5565b92915050565b60006020828403121561110e5761110d6109d1565b5b600061111c848285016110e3565b91505092915050565b7f4e487b7100000000000000000000000000000000000000000000000000000000600052601160045260246000fd5b600061115f826109db565b915061116a836109db565b925082820390508181111561118257611181611125565b5b92915050565b6000819050919050565b60006111ad6111a86111a384611188565b611005565b610fea565b9050919050565b6111bd81611192565b82525050565b60006020820190506111d860008301846111b4565b92915050565b7f4e487b7100000000000000000000000000000000000000000000000000000000600052603260045260246000fd5b7f4e487b7100000000000000000000000000000000000000000000000000000000600052601260045260246000fd5b6000611247826109db565b9150611252836109db565b9250826112625761126161120d565b5b828206905092915050565b600081905092915050565b50565b600061128860008361126d565b915061129382611278565b600082019050919050565b60006112a98261127b565b915081905091905056fea2646970667358221220ae0786b13183a8db90ab7e98bdbdc1ce9b2987a15022dadd2337f0e802138db964736f6c63430008110033","opcodes":"PUSH2 0x160 PUSH1 0x40 MSTORE CALLVALUE DUP1 ISZERO PUSH3 0x12 JUMPI PUSH1 0x0 DUP1 REVERT JUMPDEST POP PUSH1 0x40 MLOAD PUSH3 0x16B1 CODESIZE SUB DUP1 PUSH3 0x16B1 DUP4 CODECOPY DUP2 DUP2 ADD PUSH1 0x40 MSTORE DUP2 ADD SWAP1 PUSH3 0x38 SWAP2 SWAP1 PUSH3 0x294 JUMP JUMPDEST DUP6 DUP1 PUSH20 0xFFFFFFFFFFFFFFFFFFFFFFFFFFFFFFFFFFFFFFFF AND PUSH1 0x80 DUP2 PUSH20 0xFFFFFFFFFFFFFFFFFFFFFFFFFFFFFFFFFFFFFFFF AND DUP2 MSTORE POP POP POP DUP5 PUSH1 0xA0 DUP2 DUP2 MSTORE POP POP DUP6 PUSH20 0xFFFFFFFFFFFFFFFFFFFFFFFFFFFFFFFFFFFFFFFF AND PUSH1 0xC0 DUP2 PUSH20 0xFFFFFFFFFFFFFFFFFFFFFFFFFFFFFFFFFFFFFFFF AND DUP2 MSTORE POP POP DUP4 PUSH1 0xE0 DUP2 DUP2 MSTORE POP POP DUP3 PUSH8 0xFFFFFFFFFFFFFFFF AND PUSH2 0x100 DUP2 PUSH8 0xFFFFFFFFFFFFFFFF AND DUP2 MSTORE POP POP DUP2 PUSH4 0xFFFFFFFF AND PUSH2 0x120 DUP2 PUSH4 0xFFFFFFFF AND DUP2 MSTORE POP POP PUSH1 0x0 PUSH1 0x2 PUSH1 0x14 PUSH2 0x100 EXP DUP2 SLOAD DUP2 PUSH1 0xFF MUL NOT AND SWAP1 DUP4 PUSH1 0x1 DUP2 GT ISZERO PUSH3 0x10D JUMPI PUSH3 0x10C PUSH3 0x330 JUMP JUMPDEST JUMPDEST MUL OR SWAP1 SSTORE POP DUP1 PUSH2 0x140 DUP2 DUP2 MSTORE POP POP TIMESTAMP PUSH1 0x1 DUP2 SWAP1 SSTORE POP POP POP POP POP POP POP PUSH3 0x35F JUMP JUMPDEST PUSH1 0x0 DUP1 REVERT JUMPDEST PUSH1 0x0 PUSH20 0xFFFFFFFFFFFFFFFFFFFFFFFFFFFFFFFFFFFFFFFF DUP3 AND SWAP1 POP SWAP2 SWAP1 POP JUMP JUMPDEST PUSH1 0x0 PUSH3 0x160 DUP3 PUSH3 0x133 JUMP JUMPDEST SWAP1 POP SWAP2 SWAP1 POP JUMP JUMPDEST PUSH3 0x172 DUP2 PUSH3 0x153 JUMP JUMPDEST DUP2 EQ PUSH3 0x17E JUMPI PUSH1 0x0 DUP1 REVERT JUMPDEST POP JUMP JUMPDEST PUSH1 0x0 DUP2 MLOAD SWAP1 POP PUSH3 0x192 DUP2 PUSH3 0x167 JUMP JUMPDEST SWAP3 SWAP2 POP POP JUMP JUMPDEST PUSH1 0x0 DUP2 SWAP1 POP SWAP2 SWAP1 POP JUMP JUMPDEST PUSH3 0x1AD DUP2 PUSH3 0x198 JUMP JUMPDEST DUP2 EQ PUSH3 0x1B9 JUMPI PUSH1 0x0 DUP1 REVERT JUMPDEST POP JUMP JUMPDEST PUSH1 0x0 DUP2 MLOAD SWAP1 POP PUSH3 0x1CD DUP2 PUSH3 0x1A2 JUMP JUMPDEST SWAP3 SWAP2 POP POP JUMP JUMPDEST PUSH1 0x0 DUP2 SWAP1 POP SWAP2 SWAP1 POP JUMP JUMPDEST PUSH3 0x1E8 DUP2 PUSH3 0x1D3 JUMP JUMPDEST DUP2 EQ PUSH3 0x1F4 JUMPI PUSH1 0x0 DUP1 REVERT JUMPDEST POP JUMP JUMPDEST PUSH1 0x0 DUP2 MLOAD SWAP1 POP PUSH3 0x208 DUP2 PUSH3 0x1DD JUMP JUMPDEST SWAP3 SWAP2 POP POP JUMP JUMPDEST PUSH1 0x0 PUSH8 0xFFFFFFFFFFFFFFFF DUP3 AND SWAP1 POP SWAP2 SWAP1 POP JUMP JUMPDEST PUSH3 0x22D DUP2 PUSH3 0x20E JUMP JUMPDEST DUP2 EQ PUSH3 0x239 JUMPI PUSH1 0x0 DUP1 REVERT JUMPDEST POP JUMP JUMPDEST PUSH1 0x0 DUP2 MLOAD SWAP1 POP PUSH3 0x24D DUP2 PUSH3 0x222 JUMP JUMPDEST SWAP3 SWAP2 POP POP JUMP JUMPDEST PUSH1 0x0 PUSH4 0xFFFFFFFF DUP3 AND SWAP1 POP SWAP2 SWAP1 POP JUMP JUMPDEST PUSH3 0x26E DUP2 PUSH3 0x253 JUMP JUMPDEST DUP2 EQ PUSH3 0x27A JUMPI PUSH1 0x0 DUP1 REVERT JUMPDEST POP JUMP JUMPDEST PUSH1 0x0 DUP2 MLOAD SWAP1 POP PUSH3 0x28E DUP2 PUSH3 0x263 JUMP JUMPDEST SWAP3 SWAP2 POP POP JUMP JUMPDEST PUSH1 0x0 DUP1 PUSH1 0x0 DUP1 PUSH1 0x0 DUP1 PUSH1 0xC0 DUP8 DUP10 SUB SLT ISZERO PUSH3 0x2B4 JUMPI PUSH3 0x2B3 PUSH3 0x12E JUMP JUMPDEST JUMPDEST PUSH1 0x0 PUSH3 0x2C4 DUP10 DUP3 DUP11 ADD PUSH3 0x181 JUMP JUMPDEST SWAP7 POP POP PUSH1 0x20 PUSH3 0x2D7 DUP10 DUP3 DUP11 ADD PUSH3 0x1BC JUMP JUMPDEST SWAP6 POP POP PUSH1 0x40 PUSH3 0x2EA DUP10 DUP3 DUP11 ADD PUSH3 0x1F7 JUMP JUMPDEST SWAP5 POP POP PUSH1 0x60 PUSH3 0x2FD DUP10 DUP3 DUP11 ADD PUSH3 0x23C JUMP JUMPDEST SWAP4 POP POP PUSH1 0x80 PUSH3 0x310 DUP10 DUP3 DUP11 ADD PUSH3 0x27D JUMP JUMPDEST SWAP3 POP POP PUSH1 0xA0 PUSH3 0x323 DUP10 DUP3 DUP11 ADD PUSH3 0x1BC JUMP JUMPDEST SWAP2 POP POP SWAP3 SWAP6 POP SWAP3 SWAP6 POP SWAP3 SWAP6 JUMP JUMPDEST PUSH32 0x4E487B7100000000000000000000000000000000000000000000000000000000 PUSH1 0x0 MSTORE PUSH1 0x21 PUSH1 0x4 MSTORE PUSH1 0x24 PUSH1 0x0 REVERT JUMPDEST PUSH1 0x80 MLOAD PUSH1 0xA0 MLOAD PUSH1 0xC0 MLOAD PUSH1 0xE0 MLOAD PUSH2 0x100 MLOAD PUSH2 0x120 MLOAD PUSH2 0x140 MLOAD PUSH2 0x12E9 PUSH3 0x3C8 PUSH1 0x0 CODECOPY PUSH1 0x0 PUSH2 0x66E ADD MSTORE PUSH1 0x0 PUSH2 0x388 ADD MSTORE PUSH1 0x0 PUSH2 0x365 ADD MSTORE PUSH1 0x0 PUSH2 0x344 ADD MSTORE PUSH1 0x0 PUSH2 0x308 ADD MSTORE PUSH1 0x0 DUP2 DUP2 PUSH2 0x46F ADD MSTORE PUSH2 0x495 ADD MSTORE PUSH1 0x0 DUP2 DUP2 PUSH2 0x192 ADD MSTORE PUSH2 0x1E6 ADD MSTORE PUSH2 0x12E9 PUSH1 0x0 RETURN INVALID PUSH1 0x80 PUSH1 0x40 MSTORE PUSH1 0x4 CALLDATASIZE LT PUSH2 0x70 JUMPI PUSH1 0x0 CALLDATALOAD PUSH1 0xE0 SHR DUP1 PUSH4 0x4A26D4F4 GT PUSH2 0x4E JUMPI DUP1 PUSH4 0x4A26D4F4 EQ PUSH2 0xF2 JUMPI DUP1 PUSH4 0x6300B981 EQ PUSH2 0x11D JUMPI DUP1 PUSH4 0x6B68C03C EQ PUSH2 0x127 JUMPI DUP1 PUSH4 0x6E04FF0D EQ PUSH2 0x152 JUMPI PUSH2 0x70 JUMP JUMPDEST DUP1 PUSH4 0x1FE543E3 EQ PUSH2 0x75 JUMPI DUP1 PUSH4 0x4585E33B EQ PUSH2 0x9E JUMPI DUP1 PUSH4 0x473F1DDC EQ PUSH2 0xC7 JUMPI JUMPDEST PUSH1 0x0 DUP1 REVERT JUMPDEST CALLVALUE DUP1 ISZERO PUSH2 0x81 JUMPI PUSH1 0x0 DUP1 REVERT JUMPDEST POP PUSH2 0x9C PUSH1 0x4 DUP1 CALLDATASIZE SUB DUP2 ADD SWAP1 PUSH2 0x97 SWAP2 SWAP1 PUSH2 0xB6A JUMP JUMPDEST PUSH2 0x190 JUMP JUMPDEST STOP JUMPDEST CALLVALUE DUP1 ISZERO PUSH2 0xAA JUMPI PUSH1 0x0 DUP1 REVERT JUMPDEST POP PUSH2 0xC5 PUSH1 0x4 DUP1 CALLDATASIZE SUB DUP2 ADD SWAP1 PUSH2 0xC0 SWAP2 SWAP1 PUSH2 0xC21 JUMP JUMPDEST PUSH2 0x250 JUMP JUMPDEST STOP JUMPDEST CALLVALUE DUP1 ISZERO PUSH2 0xD3 JUMPI PUSH1 0x0 DUP1 REVERT JUMPDEST POP PUSH2 0xDC PUSH2 0x441 JUMP JUMPDEST PUSH1 0x40 MLOAD PUSH2 0xE9 SWAP2 SWAP1 PUSH2 0xCAF JUMP JUMPDEST PUSH1 0x40 MLOAD DUP1 SWAP2 SUB SWAP1 RETURN JUMPDEST CALLVALUE DUP1 ISZERO PUSH2 0xFE JUMPI PUSH1 0x0 DUP1 REVERT JUMPDEST POP PUSH2 0x107 PUSH2 0x46B JUMP JUMPDEST PUSH1 0x40 MLOAD PUSH2 0x114 SWAP2 SWAP1 PUSH2 0xCD9 JUMP JUMPDEST PUSH1 0x40 MLOAD DUP1 SWAP2 SUB SWAP1 RETURN JUMPDEST PUSH2 0x125 PUSH2 0x493 JUMP JUMPDEST STOP JUMPDEST CALLVALUE DUP1 ISZERO PUSH2 0x133 JUMPI PUSH1 0x0 DUP1 REVERT JUMPDEST POP PUSH2 0x13C PUSH2 0x602 JUMP JUMPDEST PUSH1 0x40 MLOAD PUSH2 0x149 SWAP2 SWAP1 PUSH2 0xD6B JUMP JUMPDEST PUSH1 0x40 MLOAD DUP1 SWAP2 SUB SWAP1 RETURN JUMPDEST CALLVALUE DUP1 ISZERO PUSH2 0x15E JUMPI PUSH1 0x0 DUP1 REVERT JUMPDEST POP PUSH2 0x179 PUSH1 0x4 DUP1 CALLDATASIZE SUB DUP2 ADD SWAP1 PUSH2 0x174 SWAP2 SWAP1 PUSH2 0xE3B JUMP JUMPDEST PUSH2 0x619 JUMP JUMPDEST PUSH1 0x40 MLOAD PUSH2 0x187 SWAP3 SWAP2 SWAP1 PUSH2 0xF1E JUMP JUMPDEST PUSH1 0x40 MLOAD DUP1 SWAP2 SUB SWAP1 RETURN JUMPDEST PUSH32 0x0 PUSH20 0xFFFFFFFFFFFFFFFFFFFFFFFFFFFFFFFFFFFFFFFF AND CALLER PUSH20 0xFFFFFFFFFFFFFFFFFFFFFFFFFFFFFFFFFFFFFFFF AND EQ PUSH2 0x242 JUMPI CALLER PUSH32 0x0 PUSH1 0x40 MLOAD PUSH32 0x1CF993F400000000000000000000000000000000000000000000000000000000 DUP2 MSTORE PUSH1 0x4 ADD PUSH2 0x239 SWAP3 SWAP2 SWAP1 PUSH2 0xF4E JUMP JUMPDEST PUSH1 0x40 MLOAD DUP1 SWAP2 SUB SWAP1 REVERT JUMPDEST PUSH2 0x24C DUP3 DUP3 PUSH2 0x6EC JUMP JUMPDEST POP POP JUMP JUMPDEST PUSH1 0x0 PUSH2 0x26A PUSH1 0x40 MLOAD DUP1 PUSH1 0x20 ADD PUSH1 0x40 MSTORE DUP1 PUSH1 0x0 DUP2 MSTORE POP PUSH2 0x619 JUMP JUMPDEST POP SWAP1 POP DUP1 PUSH2 0x2D9 JUMPI SELFBALANCE PUSH1 0x0 DUP1 SLOAD SWAP1 POP PUSH1 0x2 PUSH1 0x14 SWAP1 SLOAD SWAP1 PUSH2 0x100 EXP SWAP1 DIV PUSH1 0xFF AND PUSH1 0x1 DUP2 GT ISZERO PUSH2 0x29B JUMPI PUSH2 0x29A PUSH2 0xCF4 JUMP JUMPDEST JUMPDEST PUSH1 0x40 MLOAD PUSH32 0xE8492F800000000000000000000000000000000000000000000000000000000 DUP2 MSTORE PUSH1 0x4 ADD PUSH2 0x2D0 SWAP4 SWAP3 SWAP2 SWAP1 PUSH2 0xF77 JUMP JUMPDEST PUSH1 0x40 MLOAD DUP1 SWAP2 SUB SWAP1 REVERT JUMPDEST PUSH1 0x1 PUSH1 0x2 PUSH1 0x14 PUSH2 0x100 EXP DUP2 SLOAD DUP2 PUSH1 0xFF MUL NOT AND SWAP1 DUP4 PUSH1 0x1 DUP2 GT ISZERO PUSH2 0x2FF JUMPI PUSH2 0x2FE PUSH2 0xCF4 JUMP JUMPDEST JUMPDEST MUL OR SWAP1 SSTORE POP PUSH1 0x0 PUSH32 0x0 PUSH20 0xFFFFFFFFFFFFFFFFFFFFFFFFFFFFFFFFFFFFFFFF AND PUSH4 0x5D3B1D30 PUSH32 0x0 PUSH32 0x0 PUSH1 0x3 PUSH32 0x0 PUSH1 0x1 PUSH1 0x40 MLOAD DUP7 PUSH4 0xFFFFFFFF AND PUSH1 0xE0 SHL DUP2 MSTORE PUSH1 0x4 ADD PUSH2 0x3C9 SWAP6 SWAP5 SWAP4 SWAP3 SWAP2 SWAP1 PUSH2 0x1090 JUMP JUMPDEST PUSH1 0x20 PUSH1 0x40 MLOAD DUP1 DUP4 SUB DUP2 PUSH1 0x0 DUP8 GAS CALL ISZERO DUP1 ISZERO PUSH2 0x3E8 JUMPI RETURNDATASIZE PUSH1 0x0 DUP1 RETURNDATACOPY RETURNDATASIZE PUSH1 0x0 REVERT JUMPDEST POP POP POP POP PUSH1 0x40 MLOAD RETURNDATASIZE PUSH1 0x1F NOT PUSH1 0x1F DUP3 ADD AND DUP3 ADD DUP1 PUSH1 0x40 MSTORE POP DUP2 ADD SWAP1 PUSH2 0x40C SWAP2 SWAP1 PUSH2 0x10F8 JUMP JUMPDEST SWAP1 POP DUP1 PUSH32 0xAEBC9AA08C76851EC7588F53FACDF601C4C9F2806A541FA3EF67F2E947FE8557 PUSH1 0x40 MLOAD PUSH1 0x40 MLOAD DUP1 SWAP2 SUB SWAP1 LOG2 POP POP POP POP JUMP JUMPDEST PUSH1 0x0 PUSH1 0x2 PUSH1 0x0 SWAP1 SLOAD SWAP1 PUSH2 0x100 EXP SWAP1 DIV PUSH20 0xFFFFFFFFFFFFFFFFFFFFFFFFFFFFFFFFFFFFFFFF AND SWAP1 POP SWAP1 JUMP JUMPDEST PUSH1 0x0 PUSH32 0x0 SWAP1 POP SWAP1 JUMP JUMPDEST PUSH32 0x0 CALLVALUE LT ISZERO PUSH2 0x4ED JUMPI PUSH1 0x40 MLOAD PUSH32 0x178311000000000000000000000000000000000000000000000000000000000 DUP2 MSTORE PUSH1 0x4 ADD PUSH1 0x40 MLOAD DUP1 SWAP2 SUB SWAP1 REVERT JUMPDEST PUSH1 0x0 PUSH1 0x1 DUP2 GT ISZERO PUSH2 0x501 JUMPI PUSH2 0x500 PUSH2 0xCF4 JUMP JUMPDEST JUMPDEST PUSH1 0x2 PUSH1 0x14 SWAP1 SLOAD SWAP1 PUSH2 0x100 EXP SWAP1 DIV PUSH1 0xFF AND PUSH1 0x1 DUP2 GT ISZERO PUSH2 0x523 JUMPI PUSH2 0x522 PUSH2 0xCF4 JUMP JUMPDEST JUMPDEST EQ PUSH2 0x55A JUMPI PUSH1 0x40 MLOAD PUSH32 0xE76BE6FC00000000000000000000000000000000000000000000000000000000 DUP2 MSTORE PUSH1 0x4 ADD PUSH1 0x40 MLOAD DUP1 SWAP2 SUB SWAP1 REVERT JUMPDEST PUSH1 0x0 CALLER SWAP1 DUP1 PUSH1 0x1 DUP2 SLOAD ADD DUP1 DUP3 SSTORE DUP1 SWAP2 POP POP PUSH1 0x1 SWAP1 SUB SWAP1 PUSH1 0x0 MSTORE PUSH1 0x20 PUSH1 0x0 KECCAK256 ADD PUSH1 0x0 SWAP1 SWAP2 SWAP1 SWAP2 SWAP1 SWAP2 PUSH2 0x100 EXP DUP2 SLOAD DUP2 PUSH20 0xFFFFFFFFFFFFFFFFFFFFFFFFFFFFFFFFFFFFFFFF MUL NOT AND SWAP1 DUP4 PUSH20 0xFFFFFFFFFFFFFFFFFFFFFFFFFFFFFFFFFFFFFFFF AND MUL OR SWAP1 SSTORE POP CALLER PUSH20 0xFFFFFFFFFFFFFFFFFFFFFFFFFFFFFFFFFFFFFFFF AND PUSH32 0x421C85960088FA4CB11E499DA0FB7E5CF77C8C63F787E30E8B3FE5864378B8C PUSH1 0x40 MLOAD PUSH1 0x40 MLOAD DUP1 SWAP2 SUB SWAP1 LOG2 JUMP JUMPDEST PUSH1 0x0 PUSH1 0x2 PUSH1 0x14 SWAP1 SLOAD SWAP1 PUSH2 0x100 EXP SWAP1 DIV PUSH1 0xFF AND SWAP1 POP SWAP1 JUMP JUMPDEST PUSH1 0x0 PUSH1 0x60 PUSH1 0x0 DUP1 PUSH1 0x1 DUP2 GT ISZERO PUSH2 0x632 JUMPI PUSH2 0x631 PUSH2 0xCF4 JUMP JUMPDEST JUMPDEST PUSH1 0x2 PUSH1 0x14 SWAP1 SLOAD SWAP1 PUSH2 0x100 EXP SWAP1 DIV PUSH1 0xFF AND PUSH1 0x1 DUP2 GT ISZERO PUSH2 0x654 JUMPI PUSH2 0x653 PUSH2 0xCF4 JUMP JUMPDEST JUMPDEST EQ SWAP1 POP PUSH1 0x0 DUP1 PUSH1 0x0 DUP1 SLOAD SWAP1 POP GT SWAP1 POP PUSH1 0x0 DUP1 SELFBALANCE GT SWAP1 POP PUSH1 0x0 PUSH32 0x0 PUSH1 0x1 SLOAD TIMESTAMP PUSH2 0x69B SWAP2 SWAP1 PUSH2 0x1154 JUMP JUMPDEST LT ISZERO SWAP1 POP DUP4 DUP1 ISZERO PUSH2 0x6A9 JUMPI POP DUP3 JUMPDEST DUP1 ISZERO PUSH2 0x6B2 JUMPI POP DUP2 JUMPDEST DUP1 ISZERO PUSH2 0x6BB JUMPI POP DUP1 JUMPDEST SWAP6 POP DUP6 PUSH1 0x0 PUSH1 0x40 MLOAD PUSH1 0x20 ADD PUSH2 0x6D0 SWAP2 SWAP1 PUSH2 0x11C3 JUMP JUMPDEST PUSH1 0x40 MLOAD PUSH1 0x20 DUP2 DUP4 SUB SUB DUP2 MSTORE SWAP1 PUSH1 0x40 MSTORE SWAP6 POP SWAP6 POP POP POP POP POP SWAP2 POP SWAP2 JUMP JUMPDEST PUSH1 0x0 DUP1 DUP1 SLOAD SWAP1 POP DUP3 PUSH1 0x0 DUP2 MLOAD DUP2 LT PUSH2 0x707 JUMPI PUSH2 0x706 PUSH2 0x11DE JUMP JUMPDEST JUMPDEST PUSH1 0x20 MUL PUSH1 0x20 ADD ADD MLOAD PUSH2 0x719 SWAP2 SWAP1 PUSH2 0x123C JUMP JUMPDEST SWAP1 POP PUSH1 0x0 DUP1 DUP3 PUSH1 0xFF AND DUP2 SLOAD DUP2 LT PUSH2 0x733 JUMPI PUSH2 0x732 PUSH2 0x11DE JUMP JUMPDEST JUMPDEST SWAP1 PUSH1 0x0 MSTORE PUSH1 0x20 PUSH1 0x0 KECCAK256 ADD PUSH1 0x0 SWAP1 SLOAD SWAP1 PUSH2 0x100 EXP SWAP1 DIV PUSH20 0xFFFFFFFFFFFFFFFFFFFFFFFFFFFFFFFFFFFFFFFF AND SWAP1 POP DUP1 PUSH1 0x2 PUSH1 0x0 PUSH2 0x100 EXP DUP2 SLOAD DUP2 PUSH20 0xFFFFFFFFFFFFFFFFFFFFFFFFFFFFFFFFFFFFFFFF MUL NOT AND SWAP1 DUP4 PUSH20 0xFFFFFFFFFFFFFFFFFFFFFFFFFFFFFFFFFFFFFFFF AND MUL OR SWAP1 SSTORE POP PUSH1 0x0 PUSH1 0x2 PUSH1 0x14 PUSH2 0x100 EXP DUP2 SLOAD DUP2 PUSH1 0xFF MUL NOT AND SWAP1 DUP4 PUSH1 0x1 DUP2 GT ISZERO PUSH2 0x7C7 JUMPI PUSH2 0x7C6 PUSH2 0xCF4 JUMP JUMPDEST JUMPDEST MUL OR SWAP1 SSTORE POP PUSH1 0x0 PUSH8 0xFFFFFFFFFFFFFFFF DUP2 GT ISZERO PUSH2 0x7E7 JUMPI PUSH2 0x7E6 PUSH2 0xA27 JUMP JUMPDEST JUMPDEST PUSH1 0x40 MLOAD SWAP1 DUP1 DUP3 MSTORE DUP1 PUSH1 0x20 MUL PUSH1 0x20 ADD DUP3 ADD PUSH1 0x40 MSTORE DUP1 ISZERO PUSH2 0x815 JUMPI DUP2 PUSH1 0x20 ADD PUSH1 0x20 DUP3 MUL DUP1 CALLDATASIZE DUP4 CALLDATACOPY DUP1 DUP3 ADD SWAP2 POP POP SWAP1 POP JUMPDEST POP PUSH1 0x0 SWAP1 DUP1 MLOAD SWAP1 PUSH1 0x20 ADD SWAP1 PUSH2 0x82B SWAP3 SWAP2 SWAP1 PUSH2 0x920 JUMP JUMPDEST POP TIMESTAMP PUSH1 0x1 DUP2 SWAP1 SSTORE POP PUSH1 0x0 DUP2 PUSH20 0xFFFFFFFFFFFFFFFFFFFFFFFFFFFFFFFFFFFFFFFF AND SELFBALANCE PUSH1 0x40 MLOAD PUSH2 0x859 SWAP1 PUSH2 0x129E JUMP JUMPDEST PUSH1 0x0 PUSH1 0x40 MLOAD DUP1 DUP4 SUB DUP2 DUP6 DUP8 GAS CALL SWAP3 POP POP POP RETURNDATASIZE DUP1 PUSH1 0x0 DUP2 EQ PUSH2 0x896 JUMPI PUSH1 0x40 MLOAD SWAP2 POP PUSH1 0x1F NOT PUSH1 0x3F RETURNDATASIZE ADD AND DUP3 ADD PUSH1 0x40 MSTORE RETURNDATASIZE DUP3 MSTORE RETURNDATASIZE PUSH1 0x0 PUSH1 0x20 DUP5 ADD RETURNDATACOPY PUSH2 0x89B JUMP JUMPDEST PUSH1 0x60 SWAP2 POP JUMPDEST POP POP SWAP1 POP DUP1 PUSH2 0x8D6 JUMPI PUSH1 0x40 MLOAD PUSH32 0xF18CB4EB00000000000000000000000000000000000000000000000000000000 DUP2 MSTORE PUSH1 0x4 ADD PUSH1 0x40 MLOAD DUP1 SWAP2 SUB SWAP1 REVERT JUMPDEST DUP2 PUSH20 0xFFFFFFFFFFFFFFFFFFFFFFFFFFFFFFFFFFFFFFFF AND PUSH32 0x5B690EC4A06FE979403046EAEEA5B3CE38524683C3001F662C8B5A829632F7DF PUSH1 0x40 MLOAD PUSH1 0x40 MLOAD DUP1 SWAP2 SUB SWAP1 LOG2 POP POP POP POP POP JUMP JUMPDEST DUP3 DUP1 SLOAD DUP3 DUP3 SSTORE SWAP1 PUSH1 0x0 MSTORE PUSH1 0x20 PUSH1 0x0 KECCAK256 SWAP1 DUP2 ADD SWAP3 DUP3 ISZERO PUSH2 0x999 JUMPI SWAP2 PUSH1 0x20 MUL DUP3 ADD JUMPDEST DUP3 DUP2 GT ISZERO PUSH2 0x998 JUMPI DUP3 MLOAD DUP3 PUSH1 0x0 PUSH2 0x100 EXP DUP2 SLOAD DUP2 PUSH20 0xFFFFFFFFFFFFFFFFFFFFFFFFFFFFFFFFFFFFFFFF MUL NOT AND SWAP1 DUP4 PUSH20 0xFFFFFFFFFFFFFFFFFFFFFFFFFFFFFFFFFFFFFFFF AND MUL OR SWAP1 SSTORE POP SWAP2 PUSH1 0x20 ADD SWAP2 SWAP1 PUSH1 0x1 ADD SWAP1 PUSH2 0x940 JUMP JUMPDEST JUMPDEST POP SWAP1 POP PUSH2 0x9A6 SWAP2 SWAP1 PUSH2 0x9AA JUMP JUMPDEST POP SWAP1 JUMP JUMPDEST JUMPDEST DUP1 DUP3 GT ISZERO PUSH2 0x9C3 JUMPI PUSH1 0x0 DUP2 PUSH1 0x0 SWAP1 SSTORE POP PUSH1 0x1 ADD PUSH2 0x9AB JUMP JUMPDEST POP SWAP1 JUMP JUMPDEST PUSH1 0x0 PUSH1 0x40 MLOAD SWAP1 POP SWAP1 JUMP JUMPDEST PUSH1 0x0 DUP1 REVERT JUMPDEST PUSH1 0x0 DUP1 REVERT JUMPDEST PUSH1 0x0 DUP2 SWAP1 POP SWAP2 SWAP1 POP JUMP JUMPDEST PUSH2 0x9EE DUP2 PUSH2 0x9DB JUMP JUMPDEST DUP2 EQ PUSH2 0x9F9 JUMPI PUSH1 0x0 DUP1 REVERT JUMPDEST POP JUMP JUMPDEST PUSH1 0x0 DUP2 CALLDATALOAD SWAP1 POP PUSH2 0xA0B DUP2 PUSH2 0x9E5 JUMP JUMPDEST SWAP3 SWAP2 POP POP JUMP JUMPDEST PUSH1 0x0 DUP1 REVERT JUMPDEST PUSH1 0x0 PUSH1 0x1F NOT PUSH1 0x1F DUP4 ADD AND SWAP1 POP SWAP2 SWAP1 POP JUMP JUMPDEST PUSH32 0x4E487B7100000000000000000000000000000000000000000000000000000000 PUSH1 0x0 MSTORE PUSH1 0x41 PUSH1 0x4 MSTORE PUSH1 0x24 PUSH1 0x0 REVERT JUMPDEST PUSH2 0xA5F DUP3 PUSH2 0xA16 JUMP JUMPDEST DUP2 ADD DUP2 DUP2 LT PUSH8 0xFFFFFFFFFFFFFFFF DUP3 GT OR ISZERO PUSH2 0xA7E JUMPI PUSH2 0xA7D PUSH2 0xA27 JUMP JUMPDEST JUMPDEST DUP1 PUSH1 0x40 MSTORE POP POP POP JUMP JUMPDEST PUSH1 0x0 PUSH2 0xA91 PUSH2 0x9C7 JUMP JUMPDEST SWAP1 POP PUSH2 0xA9D DUP3 DUP3 PUSH2 0xA56 JUMP JUMPDEST SWAP2 SWAP1 POP JUMP JUMPDEST PUSH1 0x0 PUSH8 0xFFFFFFFFFFFFFFFF DUP3 GT ISZERO PUSH2 0xABD JUMPI PUSH2 0xABC PUSH2 0xA27 JUMP JUMPDEST JUMPDEST PUSH1 0x20 DUP3 MUL SWAP1 POP PUSH1 0x20 DUP2 ADD SWAP1 POP SWAP2 SWAP1 POP JUMP JUMPDEST PUSH1 0x0 DUP1 REVERT JUMPDEST PUSH1 0x0 PUSH2 0xAE6 PUSH2 0xAE1 DUP5 PUSH2 0xAA2 JUMP JUMPDEST PUSH2 0xA87 JUMP JUMPDEST SWAP1 POP DUP1 DUP4 DUP3 MSTORE PUSH1 0x20 DUP3 ADD SWAP1 POP PUSH1 0x20 DUP5 MUL DUP4 ADD DUP6 DUP2 GT ISZERO PUSH2 0xB09 JUMPI PUSH2 0xB08 PUSH2 0xACE JUMP JUMPDEST JUMPDEST DUP4 JUMPDEST DUP2 DUP2 LT ISZERO PUSH2 0xB32 JUMPI DUP1 PUSH2 0xB1E DUP9 DUP3 PUSH2 0x9FC JUMP JUMPDEST DUP5 MSTORE PUSH1 0x20 DUP5 ADD SWAP4 POP POP PUSH1 0x20 DUP2 ADD SWAP1 POP PUSH2 0xB0B JUMP JUMPDEST POP POP POP SWAP4 SWAP3 POP POP POP JUMP JUMPDEST PUSH1 0x0 DUP3 PUSH1 0x1F DUP4 ADD SLT PUSH2 0xB51 JUMPI PUSH2 0xB50 PUSH2 0xA11 JUMP JUMPDEST JUMPDEST DUP2 CALLDATALOAD PUSH2 0xB61 DUP5 DUP3 PUSH1 0x20 DUP7 ADD PUSH2 0xAD3 JUMP JUMPDEST SWAP2 POP POP SWAP3 SWAP2 POP POP JUMP JUMPDEST PUSH1 0x0 DUP1 PUSH1 0x40 DUP4 DUP6 SUB SLT ISZERO PUSH2 0xB81 JUMPI PUSH2 0xB80 PUSH2 0x9D1 JUMP JUMPDEST JUMPDEST PUSH1 0x0 PUSH2 0xB8F DUP6 DUP3 DUP7 ADD PUSH2 0x9FC JUMP JUMPDEST SWAP3 POP POP PUSH1 0x20 DUP4 ADD CALLDATALOAD PUSH8 0xFFFFFFFFFFFFFFFF DUP2 GT ISZERO PUSH2 0xBB0 JUMPI PUSH2 0xBAF PUSH2 0x9D6 JUMP JUMPDEST JUMPDEST PUSH2 0xBBC DUP6 DUP3 DUP7 ADD PUSH2 0xB3C JUMP JUMPDEST SWAP2 POP POP SWAP3 POP SWAP3 SWAP1 POP JUMP JUMPDEST PUSH1 0x0 DUP1 REVERT JUMPDEST PUSH1 0x0 DUP1 DUP4 PUSH1 0x1F DUP5 ADD SLT PUSH2 0xBE1 JUMPI PUSH2 0xBE0 PUSH2 0xA11 JUMP JUMPDEST JUMPDEST DUP3 CALLDATALOAD SWAP1 POP PUSH8 0xFFFFFFFFFFFFFFFF DUP2 GT ISZERO PUSH2 0xBFE JUMPI PUSH2 0xBFD PUSH2 0xBC6 JUMP JUMPDEST JUMPDEST PUSH1 0x20 DUP4 ADD SWAP2 POP DUP4 PUSH1 0x1 DUP3 MUL DUP4 ADD GT ISZERO PUSH2 0xC1A JUMPI PUSH2 0xC19 PUSH2 0xACE JUMP JUMPDEST JUMPDEST SWAP3 POP SWAP3 SWAP1 POP JUMP JUMPDEST PUSH1 0x0 DUP1 PUSH1 0x20 DUP4 DUP6 SUB SLT ISZERO PUSH2 0xC38 JUMPI PUSH2 0xC37 PUSH2 0x9D1 JUMP JUMPDEST JUMPDEST PUSH1 0x0 DUP4 ADD CALLDATALOAD PUSH8 0xFFFFFFFFFFFFFFFF DUP2 GT ISZERO PUSH2 0xC56 JUMPI PUSH2 0xC55 PUSH2 0x9D6 JUMP JUMPDEST JUMPDEST PUSH2 0xC62 DUP6 DUP3 DUP7 ADD PUSH2 0xBCB JUMP JUMPDEST SWAP3 POP SWAP3 POP POP SWAP3 POP SWAP3 SWAP1 POP JUMP JUMPDEST PUSH1 0x0 PUSH20 0xFFFFFFFFFFFFFFFFFFFFFFFFFFFFFFFFFFFFFFFF DUP3 AND SWAP1 POP SWAP2 SWAP1 POP JUMP JUMPDEST PUSH1 0x0 PUSH2 0xC99 DUP3 PUSH2 0xC6E JUMP JUMPDEST SWAP1 POP SWAP2 SWAP1 POP JUMP JUMPDEST PUSH2 0xCA9 DUP2 PUSH2 0xC8E JUMP JUMPDEST DUP3 MSTORE POP POP JUMP JUMPDEST PUSH1 0x0 PUSH1 0x20 DUP3 ADD SWAP1 POP PUSH2 0xCC4 PUSH1 0x0 DUP4 ADD DUP5 PUSH2 0xCA0 JUMP JUMPDEST SWAP3 SWAP2 POP POP JUMP JUMPDEST PUSH2 0xCD3 DUP2 PUSH2 0x9DB JUMP JUMPDEST DUP3 MSTORE POP POP JUMP JUMPDEST PUSH1 0x0 PUSH1 0x20 DUP3 ADD SWAP1 POP PUSH2 0xCEE PUSH1 0x0 DUP4 ADD DUP5 PUSH2 0xCCA JUMP JUMPDEST SWAP3 SWAP2 POP POP JUMP JUMPDEST PUSH32 0x4E487B7100000000000000000000000000000000000000000000000000000000 PUSH1 0x0 MSTORE PUSH1 0x21 PUSH1 0x4 MSTORE PUSH1 0x24 PUSH1 0x0 REVERT JUMPDEST PUSH1 0x2 DUP2 LT PUSH2 0xD34 JUMPI PUSH2 0xD33 PUSH2 0xCF4 JUMP JUMPDEST JUMPDEST POP JUMP JUMPDEST PUSH1 0x0 DUP2 SWAP1 POP PUSH2 0xD45 DUP3 PUSH2 0xD23 JUMP JUMPDEST SWAP2 SWAP1 POP JUMP JUMPDEST PUSH1 0x0 PUSH2 0xD55 DUP3 PUSH2 0xD37 JUMP JUMPDEST SWAP1 POP SWAP2 SWAP1 POP JUMP JUMPDEST PUSH2 0xD65 DUP2 PUSH2 0xD4A JUMP JUMPDEST DUP3 MSTORE POP POP JUMP JUMPDEST PUSH1 0x0 PUSH1 0x20 DUP3 ADD SWAP1 POP PUSH2 0xD80 PUSH1 0x0 DUP4 ADD DUP5 PUSH2 0xD5C JUMP JUMPDEST SWAP3 SWAP2 POP POP JUMP JUMPDEST PUSH1 0x0 DUP1 REVERT JUMPDEST PUSH1 0x0 PUSH8 0xFFFFFFFFFFFFFFFF DUP3 GT ISZERO PUSH2 0xDA6 JUMPI PUSH2 0xDA5 PUSH2 0xA27 JUMP JUMPDEST JUMPDEST PUSH2 0xDAF DUP3 PUSH2 0xA16 JUMP JUMPDEST SWAP1 POP PUSH1 0x20 DUP2 ADD SWAP1 POP SWAP2 SWAP1 POP JUMP JUMPDEST DUP3 DUP2 DUP4 CALLDATACOPY PUSH1 0x0 DUP4 DUP4 ADD MSTORE POP POP POP JUMP JUMPDEST PUSH1 0x0 PUSH2 0xDDE PUSH2 0xDD9 DUP5 PUSH2 0xD8B JUMP JUMPDEST PUSH2 0xA87 JUMP JUMPDEST SWAP1 POP DUP3 DUP2 MSTORE PUSH1 0x20 DUP2 ADD DUP5 DUP5 DUP5 ADD GT ISZERO PUSH2 0xDFA JUMPI PUSH2 0xDF9 PUSH2 0xD86 JUMP JUMPDEST JUMPDEST PUSH2 0xE05 DUP5 DUP3 DUP6 PUSH2 0xDBC JUMP JUMPDEST POP SWAP4 SWAP3 POP POP POP JUMP JUMPDEST PUSH1 0x0 DUP3 PUSH1 0x1F DUP4 ADD SLT PUSH2 0xE22 JUMPI PUSH2 0xE21 PUSH2 0xA11 JUMP JUMPDEST JUMPDEST DUP2 CALLDATALOAD PUSH2 0xE32 DUP5 DUP3 PUSH1 0x20 DUP7 ADD PUSH2 0xDCB JUMP JUMPDEST SWAP2 POP POP SWAP3 SWAP2 POP POP JUMP JUMPDEST PUSH1 0x0 PUSH1 0x20 DUP3 DUP5 SUB SLT ISZERO PUSH2 0xE51 JUMPI PUSH2 0xE50 PUSH2 0x9D1 JUMP JUMPDEST JUMPDEST PUSH1 0x0 DUP3 ADD CALLDATALOAD PUSH8 0xFFFFFFFFFFFFFFFF DUP2 GT ISZERO PUSH2 0xE6F JUMPI PUSH2 0xE6E PUSH2 0x9D6 JUMP JUMPDEST JUMPDEST PUSH2 0xE7B DUP5 DUP3 DUP6 ADD PUSH2 0xE0D JUMP JUMPDEST SWAP2 POP POP SWAP3 SWAP2 POP POP JUMP JUMPDEST PUSH1 0x0 DUP2 ISZERO ISZERO SWAP1 POP SWAP2 SWAP1 POP JUMP JUMPDEST PUSH2 0xE99 DUP2 PUSH2 0xE84 JUMP JUMPDEST DUP3 MSTORE POP POP JUMP JUMPDEST PUSH1 0x0 DUP2 MLOAD SWAP1 POP SWAP2 SWAP1 POP JUMP JUMPDEST PUSH1 0x0 DUP3 DUP3 MSTORE PUSH1 0x20 DUP3 ADD SWAP1 POP SWAP3 SWAP2 POP POP JUMP JUMPDEST PUSH1 0x0 JUMPDEST DUP4 DUP2 LT ISZERO PUSH2 0xED9 JUMPI DUP1 DUP3 ADD MLOAD DUP2 DUP5 ADD MSTORE PUSH1 0x20 DUP2 ADD SWAP1 POP PUSH2 0xEBE JUMP JUMPDEST PUSH1 0x0 DUP5 DUP5 ADD MSTORE POP POP POP POP JUMP JUMPDEST PUSH1 0x0 PUSH2 0xEF0 DUP3 PUSH2 0xE9F JUMP JUMPDEST PUSH2 0xEFA DUP2 DUP6 PUSH2 0xEAA JUMP JUMPDEST SWAP4 POP PUSH2 0xF0A DUP2 DUP6 PUSH1 0x20 DUP7 ADD PUSH2 0xEBB JUMP JUMPDEST PUSH2 0xF13 DUP2 PUSH2 0xA16 JUMP JUMPDEST DUP5 ADD SWAP2 POP POP SWAP3 SWAP2 POP POP JUMP JUMPDEST PUSH1 0x0 PUSH1 0x40 DUP3 ADD SWAP1 POP PUSH2 0xF33 PUSH1 0x0 DUP4 ADD DUP6 PUSH2 0xE90 JUMP JUMPDEST DUP2 DUP2 SUB PUSH1 0x20 DUP4 ADD MSTORE PUSH2 0xF45 DUP2 DUP5 PUSH2 0xEE5 JUMP JUMPDEST SWAP1 POP SWAP4 SWAP3 POP POP POP JUMP JUMPDEST PUSH1 0x0 PUSH1 0x40 DUP3 ADD SWAP1 POP PUSH2 0xF63 PUSH1 0x0 DUP4 ADD DUP6 PUSH2 0xCA0 JUMP JUMPDEST PUSH2 0xF70 PUSH1 0x20 DUP4 ADD DUP5 PUSH2 0xCA0 JUMP JUMPDEST SWAP4 SWAP3 POP POP POP JUMP JUMPDEST PUSH1 0x0 PUSH1 0x60 DUP3 ADD SWAP1 POP PUSH2 0xF8C PUSH1 0x0 DUP4 ADD DUP7 PUSH2 0xCCA JUMP JUMPDEST PUSH2 0xF99 PUSH1 0x20 DUP4 ADD DUP6 PUSH2 0xCCA JUMP JUMPDEST PUSH2 0xFA6 PUSH1 0x40 DUP4 ADD DUP5 PUSH2 0xCCA JUMP JUMPDEST SWAP5 SWAP4 POP POP POP POP JUMP JUMPDEST PUSH1 0x0 DUP2 SWAP1 POP SWAP2 SWAP1 POP JUMP JUMPDEST PUSH2 0xFC1 DUP2 PUSH2 0xFAE JUMP JUMPDEST DUP3 MSTORE POP POP JUMP JUMPDEST PUSH1 0x0 PUSH8 0xFFFFFFFFFFFFFFFF DUP3 AND SWAP1 POP SWAP2 SWAP1 POP JUMP JUMPDEST PUSH2 0xFE4 DUP2 PUSH2 0xFC7 JUMP JUMPDEST DUP3 MSTORE POP POP JUMP JUMPDEST PUSH1 0x0 PUSH1 0xFF DUP3 AND SWAP1 POP SWAP2 SWAP1 POP JUMP JUMPDEST PUSH1 0x0 PUSH2 0xFFFF DUP3 AND SWAP1 POP SWAP2 SWAP1 POP JUMP JUMPDEST PUSH1 0x0 DUP2 SWAP1 POP SWAP2 SWAP1 POP JUMP JUMPDEST PUSH1 0x0 PUSH2 0x102A PUSH2 0x1025 PUSH2 0x1020 DUP5 PUSH2 0xFEA JUMP JUMPDEST PUSH2 0x1005 JUMP JUMPDEST PUSH2 0xFF7 JUMP JUMPDEST SWAP1 POP SWAP2 SWAP1 POP JUMP JUMPDEST PUSH2 0x103A DUP2 PUSH2 0x100F JUMP JUMPDEST DUP3 MSTORE POP POP JUMP JUMPDEST PUSH1 0x0 PUSH4 0xFFFFFFFF DUP3 AND SWAP1 POP SWAP2 SWAP1 POP JUMP JUMPDEST PUSH2 0x1059 DUP2 PUSH2 0x1040 JUMP JUMPDEST DUP3 MSTORE POP POP JUMP JUMPDEST PUSH1 0x0 PUSH2 0x107A PUSH2 0x1075 PUSH2 0x1070 DUP5 PUSH2 0xFEA JUMP JUMPDEST PUSH2 0x1005 JUMP JUMPDEST PUSH2 0x1040 JUMP JUMPDEST SWAP1 POP SWAP2 SWAP1 POP JUMP JUMPDEST PUSH2 0x108A DUP2 PUSH2 0x105F JUMP JUMPDEST DUP3 MSTORE POP POP JUMP JUMPDEST PUSH1 0x0 PUSH1 0xA0 DUP3 ADD SWAP1 POP PUSH2 0x10A5 PUSH1 0x0 DUP4 ADD DUP9 PUSH2 0xFB8 JUMP JUMPDEST PUSH2 0x10B2 PUSH1 0x20 DUP4 ADD DUP8 PUSH2 0xFDB JUMP JUMPDEST PUSH2 0x10BF PUSH1 0x40 DUP4 ADD DUP7 PUSH2 0x1031 JUMP JUMPDEST PUSH2 0x10CC PUSH1 0x60 DUP4 ADD DUP6 PUSH2 0x1050 JUMP JUMPDEST PUSH2 0x10D9 PUSH1 0x80 DUP4 ADD DUP5 PUSH2 0x1081 JUMP JUMPDEST SWAP7 SWAP6 POP POP POP POP POP POP JUMP JUMPDEST PUSH1 0x0 DUP2 MLOAD SWAP1 POP PUSH2 0x10F2 DUP2 PUSH2 0x9E5 JUMP JUMPDEST SWAP3 SWAP2 POP POP JUMP JUMPDEST PUSH1 0x0 PUSH1 0x20 DUP3 DUP5 SUB SLT ISZERO PUSH2 0x110E JUMPI PUSH2 0x110D PUSH2 0x9D1 JUMP JUMPDEST JUMPDEST PUSH1 0x0 PUSH2 0x111C DUP5 DUP3 DUP6 ADD PUSH2 0x10E3 JUMP JUMPDEST SWAP2 POP POP SWAP3 SWAP2 POP POP JUMP JUMPDEST PUSH32 0x4E487B7100000000000000000000000000000000000000000000000000000000 PUSH1 0x0 MSTORE PUSH1 0x11 PUSH1 0x4 MSTORE PUSH1 0x24 PUSH1 0x0 REVERT JUMPDEST PUSH1 0x0 PUSH2 0x115F DUP3 PUSH2 0x9DB JUMP JUMPDEST SWAP2 POP PUSH2 0x116A DUP4 PUSH2 0x9DB JUMP JUMPDEST SWAP3 POP DUP3 DUP3 SUB SWAP1 POP DUP2 DUP2 GT ISZERO PUSH2 0x1182 JUMPI PUSH2 0x1181 PUSH2 0x1125 JUMP JUMPDEST JUMPDEST SWAP3 SWAP2 POP POP JUMP JUMPDEST PUSH1 0x0 DUP2 SWAP1 POP SWAP2 SWAP1 POP JUMP JUMPDEST PUSH1 0x0 PUSH2 0x11AD PUSH2 0x11A8 PUSH2 0x11A3 DUP5 PUSH2 0x1188 JUMP JUMPDEST PUSH2 0x1005 JUMP JUMPDEST PUSH2 0xFEA JUMP JUMPDEST SWAP1 POP SWAP2 SWAP1 POP JUMP JUMPDEST PUSH2 0x11BD DUP2 PUSH2 0x1192 JUMP JUMPDEST DUP3 MSTORE POP POP JUMP JUMPDEST PUSH1 0x0 PUSH1 0x20 DUP3 ADD SWAP1 POP PUSH2 0x11D8 PUSH1 0x0 DUP4 ADD DUP5 PUSH2 0x11B4 JUMP JUMPDEST SWAP3 SWAP2 POP POP JUMP JUMPDEST PUSH32 0x4E487B7100000000000000000000000000000000000000000000000000000000 PUSH1 0x0 MSTORE PUSH1 0x32 PUSH1 0x4 MSTORE PUSH1 0x24 PUSH1 0x0 REVERT JUMPDEST PUSH32 0x4E487B7100000000000000000000000000000000000000000000000000000000 PUSH1 0x0 MSTORE PUSH1 0x12 PUSH1 0x4 MSTORE PUSH1 0x24 PUSH1 0x0 REVERT JUMPDEST PUSH1 0x0 PUSH2 0x1247 DUP3 PUSH2 0x9DB JUMP JUMPDEST SWAP2 POP PUSH2 0x1252 DUP4 PUSH2 0x9DB JUMP JUMPDEST SWAP3 POP DUP3 PUSH2 0x1262 JUMPI PUSH2 0x1261 PUSH2 0x120D JUMP JUMPDEST JUMPDEST DUP3 DUP3 MOD SWAP1 POP SWAP3 SWAP2 POP POP JUMP JUMPDEST PUSH1 0x0 DUP2 SWAP1 POP SWAP3 SWAP2 POP POP JUMP JUMPDEST POP JUMP JUMPDEST PUSH1 0x0 PUSH2 0x1288 PUSH1 0x0 DUP4 PUSH2 0x126D JUMP JUMPDEST SWAP2 POP PUSH2 0x1293 DUP3 PUSH2 0x1278 JUMP JUMPDEST PUSH1 0x0 DUP3 ADD SWAP1 POP SWAP2 SWAP1 POP JUMP JUMPDEST PUSH1 0x0 PUSH2 0x12A9 DUP3 PUSH2 0x127B JUMP JUMPDEST SWAP2 POP DUP2 SWAP1 POP SWAP2 SWAP1 POP JUMP INVALID LOG2 PUSH5 0x6970667358 0x22 SLT KECCAK256 0xAE SMOD DUP7 0xB1 BALANCE DUP4 0xA8 0xDB SWAP1 0xAB PUSH31 0x98BDBDC1CE9B2987A15022DADD2337F0E802138DB964736F6C634300081100 CALLER "},"gasEstimates":{"creation":{"codeDepositCost":"968200","executionCost":"infinite","totalCost":"infinite"},"external":{"checkUpkeep(bytes)":"infinite","enterlottery()":"infinite","getEntranceFees()":"infinite","getLotteryState()":"2662","getRecentWinner()":"2567","performUpkeep(bytes)":"infinite","rawFulfillRandomWords(uint256,uint256[])":"infinite"},"internal":{"fulfillRandomWords(uint256,uint256[] memory)":"infinite"}},"methodIdentifiers":{"checkUpkeep(bytes)":"6e04ff0d","enterlottery()":"6300b981","getEntranceFees()":"4a26d4f4","getLotteryState()":"6b68c03c","getRecentWinner()":"473f1ddc","performUpkeep(bytes)":"4585e33b","rawFulfillRandomWords(uint256,uint256[])":"1fe543e3"}},"storageLayout":{"storage":[{"astId":254,"contract":"contracts/Lottery.sol:Lottery","label":"s_players","offset":0,"slot":"0","type":"t_array(t_address_payable)dyn_storage"},{"astId":271,"contract":"contracts/Lottery.sol:Lottery","label":"s_lastTime","offset":0,"slot":"1","type":"t_uint256"},{"astId":275,"contract":"contracts/Lottery.sol:Lottery","label":"s_recentWinner","offset":0,"slot":"2","type":"t_address"},{"astId":278,"contract":"contracts/Lottery.sol:Lottery","label":"s_state","offset":20,"slot":"2","type":"t_enum(LotteryState)237"}],"types":{"t_address":{"encoding":"inplace","label":"address","numberOfBytes":"20"},"t_address_payable":{"encoding":"inplace","label":"address payable","numberOfBytes":"20"},"t_array(t_address_payable)dyn_storage":{"base":"t_address_payable","encoding":"dynamic_array","label":"address payable[]","numberOfBytes":"32"},"t_enum(LotteryState)237":{"encoding":"inplace","label":"enum Lottery.LotteryState","numberOfBytes":"1"},"t_uint256":{"encoding":"inplace","label":"uint256","numberOfBytes":"32"}}},"userdoc":{"kind":"user","methods":{},"version":1}}}}