{
  "_format": "hh-sol-artifact-1",
  "contractName": "Lottery",
  "sourceName": "contracts/Lottery.sol",
  "abi": [
    {
      "inputs": [
        {
          "internalType": "address",
          "name": "vrfCoordinator",
          "type": "address"
        },
        {
          "internalType": "uint256",
          "name": "entrancefee",
          "type": "uint256"
        },
        {
          "internalType": "bytes32",
          "name": "keyHash",
          "type": "bytes32"
        },
        {
          "internalType": "uint64",
          "name": "subscriptionID",
          "type": "uint64"
        },
        {
          "internalType": "uint32",
          "name": "callbackGasLimit",
          "type": "uint32"
        },
        {
          "internalType": "uint256",
          "name": "interval",
          "type": "uint256"
        }
      ],
      "stateMutability": "nonpayable",
      "type": "constructor"
    },
    {
      "inputs": [],
      "name": "Lottery_NotEnoughEth",
      "type": "error"
    },
    {
      "inputs": [],
      "name": "Lottery_TransactionFailed",
      "type": "error"
    },
    {
      "inputs": [
        {
          "internalType": "uint256",
          "name": "balance",
          "type": "uint256"
        },
        {
          "internalType": "uint256",
          "name": "players",
          "type": "uint256"
        },
        {
          "internalType": "uint256",
          "name": "state",
          "type": "uint256"
        }
      ],
      "name": "Lottery_UpKeepNotNeeded",
      "type": "error"
    },
    {
      "inputs": [],
      "name": "Lottery__NotOpen",
      "type": "error"
    },
    {
      "inputs": [
        {
          "internalType": "address",
          "name": "have",
          "type": "address"
        },
        {
          "internalType": "address",
          "name": "want",
          "type": "address"
        }
      ],
      "name": "OnlyCoordinatorCanFulfill",
      "type": "error"
    },
    {
      "anonymous": false,
      "inputs": [
        {
          "indexed": true,
          "internalType": "address",
          "name": "player",
          "type": "address"
        }
      ],
      "name": "Lotteryenter",
      "type": "event"
    },
    {
      "anonymous": false,
      "inputs": [
        {
          "indexed": true,
          "internalType": "address",
          "name": "winner",
          "type": "address"
        }
      ],
      "name": "WinnerPicked",
      "type": "event"
    },
    {
      "anonymous": false,
      "inputs": [
        {
          "indexed": true,
          "internalType": "uint256",
          "name": "requestId",
          "type": "uint256"
        }
      ],
      "name": "requestLotteryWinenr",
      "type": "event"
    },
    {
      "inputs": [
        {
          "internalType": "bytes",
          "name": "",
          "type": "bytes"
        }
      ],
      "name": "checkUpkeep",
      "outputs": [
        {
          "internalType": "bool",
          "name": "upKeepNeeded",
          "type": "bool"
        },
        {
          "internalType": "bytes",
          "name": "",
          "type": "bytes"
        }
      ],
      "stateMutability": "nonpayable",
      "type": "function"
    },
    {
      "inputs": [],
      "name": "enterlottery",
      "outputs": [],
      "stateMutability": "payable",
      "type": "function"
    },
    {
      "inputs": [],
      "name": "getEntranceFees",
      "outputs": [
        {
          "internalType": "uint256",
          "name": "",
          "type": "uint256"
        }
      ],
      "stateMutability": "view",
      "type": "function"
    },
    {
      "inputs": [],
      "name": "getLastTimeStamp",
      "outputs": [
        {
          "internalType": "uint256",
          "name": "",
          "type": "uint256"
        }
      ],
      "stateMutability": "view",
      "type": "function"
    },
    {
      "inputs": [],
      "name": "getLotteryState",
      "outputs": [
        {
          "internalType": "enum Lottery.LotteryState",
          "name": "",
          "type": "uint8"
        }
      ],
      "stateMutability": "view",
      "type": "function"
    },
    {
      "inputs": [],
      "name": "getNum_Words",
      "outputs": [
        {
          "internalType": "uint256",
          "name": "",
          "type": "uint256"
        }
      ],
      "stateMutability": "pure",
      "type": "function"
    },
    {
      "inputs": [],
      "name": "getPlayersLength",
      "outputs": [
        {
          "internalType": "uint256",
          "name": "",
          "type": "uint256"
        }
      ],
      "stateMutability": "view",
      "type": "function"
    },
    {
      "inputs": [],
      "name": "getRecentWinner",
      "outputs": [
        {
          "internalType": "address",
          "name": "",
          "type": "address"
        }
      ],
      "stateMutability": "view",
      "type": "function"
    },
    {
      "inputs": [],
      "name": "getRequestConfirmation",
      "outputs": [
        {
          "internalType": "uint256",
          "name": "",
          "type": "uint256"
        }
      ],
      "stateMutability": "pure",
      "type": "function"
    },
    {
      "inputs": [
        {
          "internalType": "bytes",
          "name": "",
          "type": "bytes"
        }
      ],
      "name": "performUpkeep",
      "outputs": [],
      "stateMutability": "nonpayable",
      "type": "function"
    },
    {
      "inputs": [
        {
          "internalType": "uint256",
          "name": "requestId",
          "type": "uint256"
        },
        {
          "internalType": "uint256[]",
          "name": "randomWords",
          "type": "uint256[]"
        }
      ],
      "name": "rawFulfillRandomWords",
      "outputs": [],
      "stateMutability": "nonpayable",
      "type": "function"
    }
  ],
  "bytecode": "0x6101606040523480156200001257600080fd5b50604051620017b7380380620017b7833981810160405281019062000038919062000294565b858073ffffffffffffffffffffffffffffffffffffffff1660808173ffffffffffffffffffffffffffffffffffffffff1681525050508460a081815250508573ffffffffffffffffffffffffffffffffffffffff1660c08173ffffffffffffffffffffffffffffffffffffffff16815250508360e081815250508267ffffffffffffffff166101008167ffffffffffffffff16815250508163ffffffff166101208163ffffffff16815250506000600260146101000a81548160ff021916908360018111156200010d576200010c62000330565b5b0217905550806101408181525050426001819055505050505050506200035f565b600080fd5b600073ffffffffffffffffffffffffffffffffffffffff82169050919050565b6000620001608262000133565b9050919050565b620001728162000153565b81146200017e57600080fd5b50565b600081519050620001928162000167565b92915050565b6000819050919050565b620001ad8162000198565b8114620001b957600080fd5b50565b600081519050620001cd81620001a2565b92915050565b6000819050919050565b620001e881620001d3565b8114620001f457600080fd5b50565b6000815190506200020881620001dd565b92915050565b600067ffffffffffffffff82169050919050565b6200022d816200020e565b81146200023957600080fd5b50565b6000815190506200024d8162000222565b92915050565b600063ffffffff82169050919050565b6200026e8162000253565b81146200027a57600080fd5b50565b6000815190506200028e8162000263565b92915050565b60008060008060008060c08789031215620002b457620002b36200012e565b5b6000620002c489828a0162000181565b9650506020620002d789828a01620001bc565b9550506040620002ea89828a01620001f7565b9450506060620002fd89828a016200023c565b93505060806200031089828a016200027d565b92505060a06200032389828a01620001bc565b9150509295509295509295565b7f4e487b7100000000000000000000000000000000000000000000000000000000600052602160045260246000fd5b60805160a05160c05160e0516101005161012051610140516113ef620003c86000396000610746015260006104600152600061043d0152600061041c015260006103e0015260008181610547015261056d01526000818161026a01526102be01526113ef6000f3fe60806040526004361061009c5760003560e01c80636b68c03c116100645780636b68c03c146101535780636e04ff0d1461017e5780639d4251d3146101bc578063c1c244e8146101e7578063ca6a9ef814610212578063cd61386d1461023d5761009c565b80631fe543e3146100a15780634585e33b146100ca578063473f1ddc146100f35780634a26d4f41461011e5780636300b98114610149575b600080fd5b3480156100ad57600080fd5b506100c860048036038101906100c39190610c70565b610268565b005b3480156100d657600080fd5b506100f160048036038101906100ec9190610d27565b610328565b005b3480156100ff57600080fd5b50610108610519565b6040516101159190610db5565b60405180910390f35b34801561012a57600080fd5b50610133610543565b6040516101409190610ddf565b60405180910390f35b61015161056b565b005b34801561015f57600080fd5b506101686106da565b6040516101759190610e71565b60405180910390f35b34801561018a57600080fd5b506101a560048036038101906101a09190610f41565b6106f1565b6040516101b3929190611024565b60405180910390f35b3480156101c857600080fd5b506101d16107c4565b6040516101de9190610ddf565b60405180910390f35b3480156101f357600080fd5b506101fc6107d0565b6040516102099190610ddf565b60405180910390f35b34801561021e57600080fd5b506102276107da565b6040516102349190610ddf565b60405180910390f35b34801561024957600080fd5b506102526107e6565b60405161025f9190610ddf565b60405180910390f35b7f000000000000000000000000000000000000000000000000000000000000000073ffffffffffffffffffffffffffffffffffffffff163373ffffffffffffffffffffffffffffffffffffffff161461031a57337f00000000000000000000000000000000000000000000000000000000000000006040517f1cf993f4000000000000000000000000000000000000000000000000000000008152600401610311929190611054565b60405180910390fd5b61032482826107f2565b5050565b6000610342604051806020016040528060008152506106f1565b509050806103b15747600080549050600260149054906101000a900460ff16600181111561037357610372610dfa565b5b6040517f0e8492f80000000000000000000000000000000000000000000000000000000081526004016103a89392919061107d565b60405180910390fd5b6001600260146101000a81548160ff021916908360018111156103d7576103d6610dfa565b5b021790555060007f000000000000000000000000000000000000000000000000000000000000000073ffffffffffffffffffffffffffffffffffffffff16635d3b1d307f00000000000000000000000000000000000000000000000000000000000000007f000000000000000000000000000000000000000000000000000000000000000060037f000000000000000000000000000000000000000000000000000000000000000060016040518663ffffffff1660e01b81526004016104a1959493929190611196565b6020604051808303816000875af11580156104c0573d6000803e3d6000fd5b505050506040513d601f19601f820116820180604052508101906104e491906111fe565b9050807faebc9aa08c76851ec7588f53facdf601c4c9f2806a541fa3ef67f2e947fe855760405160405180910390a250505050565b6000600260009054906101000a900473ffffffffffffffffffffffffffffffffffffffff16905090565b60007f0000000000000000000000000000000000000000000000000000000000000000905090565b7f00000000000000000000000000000000000000000000000000000000000000003410156105c5576040517f0178311000000000000000000000000000000000000000000000000000000000815260040160405180910390fd5b600060018111156105d9576105d8610dfa565b5b600260149054906101000a900460ff1660018111156105fb576105fa610dfa565b5b14610632576040517fe76be6fc00000000000000000000000000000000000000000000000000000000815260040160405180910390fd5b6000339080600181540180825580915050600190039060005260206000200160009091909190916101000a81548173ffffffffffffffffffffffffffffffffffffffff021916908373ffffffffffffffffffffffffffffffffffffffff1602179055503373ffffffffffffffffffffffffffffffffffffffff167f0421c85960088fa4cb11e499da0fb7e5cf77c8c63f787e30e8b3fe5864378b8c60405160405180910390a2565b6000600260149054906101000a900460ff16905090565b60006060600080600181111561070a57610709610dfa565b5b600260149054906101000a900460ff16600181111561072c5761072b610dfa565b5b1490506000806000805490501190506000804711905060007f000000000000000000000000000000000000000000000000000000000000000060015442610773919061125a565b101590508380156107815750825b801561078a5750815b80156107935750805b95508560006040516020016107a891906112c9565b6040516020818303038152906040529550955050505050915091565b6000600160ff16905090565b6000600154905090565b6000600360ff16905090565b60008080549050905090565b600080805490508260008151811061080d5761080c6112e4565b5b602002602001015161081f9190611342565b90506000808260ff1681548110610839576108386112e4565b5b9060005260206000200160009054906101000a900473ffffffffffffffffffffffffffffffffffffffff16905080600260006101000a81548173ffffffffffffffffffffffffffffffffffffffff021916908373ffffffffffffffffffffffffffffffffffffffff1602179055506000600260146101000a81548160ff021916908360018111156108cd576108cc610dfa565b5b0217905550600067ffffffffffffffff8111156108ed576108ec610b2d565b5b60405190808252806020026020018201604052801561091b5781602001602082028036833780820191505090505b5060009080519060200190610931929190610a26565b504260018190555060008173ffffffffffffffffffffffffffffffffffffffff164760405161095f906113a4565b60006040518083038185875af1925050503d806000811461099c576040519150601f19603f3d011682016040523d82523d6000602084013e6109a1565b606091505b50509050806109dc576040517ff18cb4eb00000000000000000000000000000000000000000000000000000000815260040160405180910390fd5b8173ffffffffffffffffffffffffffffffffffffffff167f5b690ec4a06fe979403046eaeea5b3ce38524683c3001f662c8b5a829632f7df60405160405180910390a25050505050565b828054828255906000526020600020908101928215610a9f579160200282015b82811115610a9e5782518260006101000a81548173ffffffffffffffffffffffffffffffffffffffff021916908373ffffffffffffffffffffffffffffffffffffffff16021790555091602001919060010190610a46565b5b509050610aac9190610ab0565b5090565b5b80821115610ac9576000816000905550600101610ab1565b5090565b6000604051905090565b600080fd5b600080fd5b6000819050919050565b610af481610ae1565b8114610aff57600080fd5b50565b600081359050610b1181610aeb565b92915050565b600080fd5b6000601f19601f8301169050919050565b7f4e487b7100000000000000000000000000000000000000000000000000000000600052604160045260246000fd5b610b6582610b1c565b810181811067ffffffffffffffff82111715610b8457610b83610b2d565b5b80604052505050565b6000610b97610acd565b9050610ba38282610b5c565b919050565b600067ffffffffffffffff821115610bc357610bc2610b2d565b5b602082029050602081019050919050565b600080fd5b6000610bec610be784610ba8565b610b8d565b90508083825260208201905060208402830185811115610c0f57610c0e610bd4565b5b835b81811015610c385780610c248882610b02565b845260208401935050602081019050610c11565b5050509392505050565b600082601f830112610c5757610c56610b17565b5b8135610c67848260208601610bd9565b91505092915050565b60008060408385031215610c8757610c86610ad7565b5b6000610c9585828601610b02565b925050602083013567ffffffffffffffff811115610cb657610cb5610adc565b5b610cc285828601610c42565b9150509250929050565b600080fd5b60008083601f840112610ce757610ce6610b17565b5b8235905067ffffffffffffffff811115610d0457610d03610ccc565b5b602083019150836001820283011115610d2057610d1f610bd4565b5b9250929050565b60008060208385031215610d3e57610d3d610ad7565b5b600083013567ffffffffffffffff811115610d5c57610d5b610adc565b5b610d6885828601610cd1565b92509250509250929050565b600073ffffffffffffffffffffffffffffffffffffffff82169050919050565b6000610d9f82610d74565b9050919050565b610daf81610d94565b82525050565b6000602082019050610dca6000830184610da6565b92915050565b610dd981610ae1565b82525050565b6000602082019050610df46000830184610dd0565b92915050565b7f4e487b7100000000000000000000000000000000000000000000000000000000600052602160045260246000fd5b60028110610e3a57610e39610dfa565b5b50565b6000819050610e4b82610e29565b919050565b6000610e5b82610e3d565b9050919050565b610e6b81610e50565b82525050565b6000602082019050610e866000830184610e62565b92915050565b600080fd5b600067ffffffffffffffff821115610eac57610eab610b2d565b5b610eb582610b1c565b9050602081019050919050565b82818337600083830152505050565b6000610ee4610edf84610e91565b610b8d565b905082815260208101848484011115610f0057610eff610e8c565b5b610f0b848285610ec2565b509392505050565b600082601f830112610f2857610f27610b17565b5b8135610f38848260208601610ed1565b91505092915050565b600060208284031215610f5757610f56610ad7565b5b600082013567ffffffffffffffff811115610f7557610f74610adc565b5b610f8184828501610f13565b91505092915050565b60008115159050919050565b610f9f81610f8a565b82525050565b600081519050919050565b600082825260208201905092915050565b60005b83811015610fdf578082015181840152602081019050610fc4565b60008484015250505050565b6000610ff682610fa5565b6110008185610fb0565b9350611010818560208601610fc1565b61101981610b1c565b840191505092915050565b60006040820190506110396000830185610f96565b818103602083015261104b8184610feb565b90509392505050565b60006040820190506110696000830185610da6565b6110766020830184610da6565b9392505050565b60006060820190506110926000830186610dd0565b61109f6020830185610dd0565b6110ac6040830184610dd0565b949350505050565b6000819050919050565b6110c7816110b4565b82525050565b600067ffffffffffffffff82169050919050565b6110ea816110cd565b82525050565b600060ff82169050919050565b600061ffff82169050919050565b6000819050919050565b600061113061112b611126846110f0565b61110b565b6110fd565b9050919050565b61114081611115565b82525050565b600063ffffffff82169050919050565b61115f81611146565b82525050565b600061118061117b611176846110f0565b61110b565b611146565b9050919050565b61119081611165565b82525050565b600060a0820190506111ab60008301886110be565b6111b860208301876110e1565b6111c56040830186611137565b6111d26060830185611156565b6111df6080830184611187565b9695505050505050565b6000815190506111f881610aeb565b92915050565b60006020828403121561121457611213610ad7565b5b6000611222848285016111e9565b91505092915050565b7f4e487b7100000000000000000000000000000000000000000000000000000000600052601160045260246000fd5b600061126582610ae1565b915061127083610ae1565b92508282039050818111156112885761128761122b565b5b92915050565b6000819050919050565b60006112b36112ae6112a98461128e565b61110b565b6110f0565b9050919050565b6112c381611298565b82525050565b60006020820190506112de60008301846112ba565b92915050565b7f4e487b7100000000000000000000000000000000000000000000000000000000600052603260045260246000fd5b7f4e487b7100000000000000000000000000000000000000000000000000000000600052601260045260246000fd5b600061134d82610ae1565b915061135883610ae1565b92508261136857611367611313565b5b828206905092915050565b600081905092915050565b50565b600061138e600083611373565b91506113998261137e565b600082019050919050565b60006113af82611381565b915081905091905056fea2646970667358221220acdc8fab6c9ef5b317314721d5b95ba2e1b3ebeb256181d54612ef799d86cfdd64736f6c63430008110033",
  "linkReferences": {},
  "deployedLinkReferences": {}
}